:020000040800F2
:10000000483D002099010008CD1F0008871900080D
:10001000C91F00085904000801250008000000005D
:1000200000000000000000000000000001010008C6
:100030005F0400080000000045010008F91F0008E7
:10004000B3010008B3010008B3010008B3010008C0
:10005000B3010008B3010008B3010008B3010008B0
:10006000B3010008B3010008B3010008B3010008A0
:10007000B3010008B3010008B3010008B301000890
:10008000B3010008B3010008B3010008B301000880
:10009000B3010008B3010008B3010008B301000870
:1000A000B3010008B3010008B3010008B301000860
:1000B000B3010008B3010008B3010008B301000850
:1000C000B3010008B3010008B3010008B301000840
:1000D000B3010008B3010008B3010008B301000830
:1000E000B3010008B3010008B3010008DFF80CD029
:1000F00000F09CF800480047692B0008483D0020AC
:10010000224B19680868B0E8F00F80F30988BFF344
:100110006F8F4FF0000080F311884EF00D0E704786
:100120000000000006480068006880F3088862B696
:1001300061B6BFF34F8FBFF36F8F00DF00BF00BF0B
:1001400008ED00E0EFF30980BFF36F8F0F4B1A68E3
:1001500020E9F00F106008B54FF0500080F31188CF
:10016000BFF34F8FBFF36F8F03F08AFA4FF0000099
:1001700080F31188BDE8084019680868B0E8F00FFE
:1001800080F30988BFF36F8F704700BF44000020E1
:10019000EFF3058070470000064880470648004797
:1001A000FEE7FEE7FEE7FEE7FEE7FEE7FEE7FEE727
:1001B000FEE7FEE773200008ED000008D2B201E080
:1001C00000F8012B491EFBD270470022F6E710B55C
:1001D00013460A4604461946FFF7F0FF204610BDB5
:1001E0000246C9B200E0401C0378002BFBD102E0BC
:1001F00003788B4203D0401E9042F9D20020704712
:1002000030B50B46014600202022012409E021FAE6
:1002100002F59D4205D303FA02F5491B04FA02F5E3
:100220002844151EA2F10102F1DC30BD064C074D39
:1002300006E0E06840F0010394E8070098471034B6
:10024000AC42F6D3FFF756FF683B0008883B000836
:1002500010B55C2112A0FFF7C3FF28B15C2110A0EC
:10026000FFF7BEFF401C00E00DA004460722214618
:1002700012A002F047F901F04BFC5C2108A0FFF747
:10028000AFFF28B15C2106A0FFF7AAFF401C00E0E9
:1002900003A004460922214611A002F033F910BD43
:1002A0002E2E5C4170705C666C696768745C41708E
:1002B000705F466C696768742E6300005B2531359A
:1002C000733A2534645D202D2D206D6F746F72207C
:1002D000696E69742073746172742E2E2E0D0A007B
:1002E0005B253135733A2534645D202D2D206D6FEB
:1002F000746F7220696E697420636F6D706C6574C1
:10030000652E2E2E0D0A00007CB500F0A7F85C21AA
:1003100023A0FFF765FF28B15C2121A0FFF760FF54
:10032000401C00E01EA005463122294622A002F012
:10033000E9F8FFF78DFF2D480A2100238022CDE93F
:1003400000102BA12D4803F0FFF90446012C12D117
:100350005C2113A0FFF744FF28B15C2110A0FFF738
:100360003FFF401C00E00EA005464222294624A083
:1003700002F0C8F811E05C2109A0FFF731FF28B1B5
:100380005C2107A0FFF72CFF401C00E004A00546FD
:100390004622294625A002F0B5F803F033F97CBDCA
:1003A0002E2E5C4170705C7461736B5C4170705F89
:1003B0005461736B2E6300005B253135733A25342D
:1003C000645D202D2D20E5B09AE7A185E8B0B7E661
:1003D00097A0E4BABAE69CBAE9A1B9E79BAE2D2D85
:1003E000E9A39EE68EA70D0A000000001000002081
:1003F00073746172745F7461736B0000E1310008A3
:100400005B253135733A2534645D202D2D20E59030
:10041000AFE58AA8E4BBBBE58AA1E5889BE5BBBA4A
:10042000E68890E58A9F2E2E2E0D0A005B25313539
:10043000733A2534645D202D2D20E590AFE58AA820
:10044000E4BBBBE58AA1E5889BE5BBBAE5A4B1E8BE
:10045000B4A52E2E2E0D0A0000BFFEE77047704790
:1004600072B600BFFEE700002DE9F8470346002200
:1004700094466EE14FF0010808FA02F4D1F80080CA
:1004800008EA0400A0427DD1DFF8DCA2D1F80480A4
:10049000A8EB0A09D0453AD014DCB8F1030F50D0CC
:1004A00009DCB8F1000F31D0B8F1010F1CD0B8F160
:1004B000020F49D120E0B8F1110F18D0B8F1120F96
:1004C00042D11EE0B9F5881F25D006DCB9F5803F82
:1004D00020D0B9F5801F37D11AE0B9F5001F18D028
:1004E000B9F5041F30D117E0D1F80CC02DE0D1F8D8
:1004F0000C8008F1040C28E0D1F80C8008F1080CFD
:1005000023E0D1F80C8008F10C0C1EE000BF00BF06
:1005100000BF00BF00BF00BFD1F80880B8F1000FD6
:1005200002D14FF0040C0BE0D1F80880B8F1010FB4
:1005300003D14FF0080C1C6102E04FF0080C5C6125
:1005400003E04FF0000C00E000BF00BFFF2801D81F
:10055000984601E003F104084646FF2802D84FEA16
:10056000820803E0A2F108084FEA88084746D6F857
:1005700000804FF00F0909FA07F928EA09080CFA78
:1005800007F900E088E048EA0908C6F80080D1F8D9
:10059000048008F08058B8F1805F7DD100BFDFF89B
:1005A000CC81D8F8188048F00108DFF8C091C9F86C
:1005B0001880C846D8F8188008F00108CDF80080E7
:1005C00000BF00BF4FEAB9384FEA920958F82950E6
:1005D0004FEA82784FEA18794FF00F0808FA09F8C5
:1005E00025EA0805DFF88881434502D14FF000086D
:1005F00016E0DFF88081434502D14FF001080FE09B
:10060000DFF87481434502D14FF0020808E0DFF8BB
:100610006C81434502D14FF0030801E04FF004081C
:100620004FEA82794FEA197908FA09F848EA05058C
:10063000DFF84C814FEA920948F82950D1F804803C
:1006400008F48018B8F5801F0AD1DFF83881D8F88F
:10065000008048EA0008DFF82C91C9F8008009E022
:10066000DFF82081D8F8008028EA0008DFF814912C
:10067000C9F80080D1F8048008F40018B8F5001F0C
:1006800010D1DFF8008108F10408D8F8008048EAAA
:100690000008DFF8F09000E05AE009F10409C9F819
:1006A00000800DE0DFF8DC8008F10408D8F8008055
:1006B00028EA0008DFF8CC9009F10409C9F80080A5
:1006C000D1F8048008F40038B8F5003F0ED1DFF807
:1006D000B480A8F10408D8F8008048EA0008DFF8E0
:1006E000A490A9F10409C9F800800DE0DFF8948016
:1006F000A8F10408D8F8008028EA0008DFF8849000
:10070000A9F10409C9F80080D1F8048008F4803800
:10071000B8F5803F0ED1DFF86C80A8F10808D8F852
:10072000008048EA0008DFF85C90A9F10809C9F8E0
:1007300000800DE0DFF84C80A8F10808D8F80080B0
:1007400028EA0008DFF83C90A9F10809C9F8008000
:10075000521CD1F8008028FA02F8B8F1000F7FF49B
:1007600089AEBDE8F88700000000111000100240BB
:1007700000080140000C014000100140001401403D
:10078000080001400804014010B5C26821EA0203D4
:1007900002EA010443EA0443036110BD0AB10161A6
:1007A00001E00B04036170470148006870470000D6
:1007B0000000002003480068034909780844014903
:1007C00008607047000000200800002010B50848AD
:1007D000006840F0100006490860032000F098F817
:1007E0000F2000F007F800F02BF8002010BD0000EB
:1007F0000020024070B504460E4800784FF47A712C
:10080000B1FBF0F00C490968B1FBF0F5284600F0A7
:100810008BFC08B1012070BD102C07D200222146AC
:10082000501E00F037F80548046001E00120F2E7AF
:100830000020F0E7080000200C0000200400002049
:1008400008B500BF1148806940F001000F49886178
:100850000846806900F00100009000BF00BF00BFA3
:100860000846C06940F08050C8610846C06900F081
:100870008050009000BF00BF00BF0549486820F0CD
:10088000E06040F00070486000BF08BD001002400A
:10089000000001402DE9F05F80460D461646002716
:1008A00001F040FE074639462A46334601F007006C
:1008B000C0F1070ABAF1040F02D94FF0040A01E0AF
:1008C000C0F1070AD14600F1040ABAF1070F02D2BB
:1008D0004FF0000A01E0A0F1030AD4464FF0010AEC
:1008E0000AFA09FAAAF1010A0AEA020A0AFA0CFA51
:1008F0004FF0010B0BFA0CFBABF1010B0BEA030BF6
:100900004AEA0B042146404601F014FEBDE8F09F80
:1009100000BF00F00702064B19684FF6FF031940AD
:10092000044B0B4343EA0221014B196000BF70479F
:100930000CED00E00000FA0570B504460D460CB958
:10094000012070BD5A48006800F00700A8420ED28E
:100950005748006820F007002843554908600846BA
:10096000006800F00700A84201D00120E9E72078E4
:1009700000F0020002281DD1207800F004000428B5
:1009800005D14C48406840F4E0604A49486020780E
:1009900000F00800082805D14648406840F460503F
:1009A000444948604348406820F0F000A16808438B
:1009B00040494860207800F0010078B36068012861
:1009C00006D13C48006800F4003090B90120B8E737
:1009D0006068022806D13748006800F0007040B90E
:1009E0000120AEE73348006800F0020008B901209A
:1009F000A7E73048406820F00300616808432D49AC
:100A00004860FFF7D1FE064609E0FFF7CDFE801BE8
:100A100041F28831884202D9032092E707E0254855
:100A2000406800F00C006168B0EB810FEDD1204808
:100A3000006800F00700A8420ED91D48006820F0A9
:100A4000070028431A4908600846006800F00700BC
:100A5000A84201D0012074E7207800F004000428A7
:100A600007D11448406820F4E060E1680843114968
:100A70004860207800F00800082808D10D48406838
:100A800020F46050216940EAC1000A49486000F042
:100A90003FF808494968C1F30311074A515CC8404F
:100AA0000649086006480068FFF7A4FE002048E7F2
:100AB00000200240001002404E3B00080C000020C5
:100AC0000400002001480068704700000C0000206E
:100AD00000B5FFF7F7FF04494968C1F30221034A53
:100AE000515CC84000BD0000001002405E3B0008A1
:100AF00000B5FFF7E7FF04494968C1F3C221034A83
:100B0000515CC84000BD0000001002405E3B000880
:100B100070B500210022002400230020134D6968D5
:100B200001F00C05F5B1042D02D0082D19D101E01A
:100B30000F4819E00F4DC1F38346AB5D01F48035DA
:100B400055B10A4D6D68C5F340450B4E725D084DB9
:100B50005D43B5FBF2F402E0084D03FB05F42046CB
:100B600002E000BF024800BF00BF70BD001002409D
:100B700000127A003C3B00084C3B000800093D0095
:100B8000F8B504460CB90120F8BD207800F001004A
:100B9000002878D0F848406800F00C0004280CD0F9
:100BA000F548406800F00C00082811D1F248406870
:100BB00000F48030B0F5803F0AD1EF48006800F4BF
:100BC000003000285FD0606800285CD10120DBE79E
:100BD00000BF6068B0F5803F06D1E748006840F488
:100BE0008030E549086028E0606858B9E24800684C
:100BF00020F48030E04908600846006820F4802036
:100C000008601AE06068B0F5A02F0BD1DA480068E0
:100C100040F48020D84908600846006840F48030DD
:100C200008600AE0D448006820F48030D2490860A7
:100C30000846006820F48020086000BF606888B122
:100C4000FFF7B2FD054606E0FFF7AEFD401B642846
:100C500001D9032098E7C848006800F40030002854
:100C6000F2D010E0FFF7A0FD054606E0FFF79CFD7F
:100C7000401B642801D9032086E7BF48006800F4C0
:100C800000300028F2D1207800F00200022857D16D
:100C9000B948406800F00C0050B1B748406800F017
:100CA0000C00082818D1B448406800F4803098B986
:100CB000B148006800F0020020B12069012801D08D
:100CC000012061E7AC48006820F0F800616940EA63
:100CD000C100A949086033E02069E8B10120A749B3
:100CE0000860FFF761FD054606E0FFF75DFD401B6C
:100CF000022801D9032047E79F48006800F002005E
:100D00000028F2D09C48006820F0F800616940EAB1
:100D1000C1009949086013E0002098490860FFF776
:100D200043FD054606E0FFF73FFD401B022801D9C1
:100D3000032029E79048006800F002000028F2D163
:100D4000207800F0080008282DD1A069B8B1012052
:100D50008B490860FFF728FD054606E0FFF724FDF4
:100D6000401B022801D903200EE78348406A00F0A7
:100D700002000028F2D0012001F02AF913E000203F
:100D80007F490860FFF710FD054606E0FFF70CFD00
:100D9000401B022801D90320F6E67748406A00F09C
:100DA00002000028F2D1207800F00400042873D15A
:100DB00000277148C06900F0805070B900BF6E48CC
:100DC000C06940F080506C49C8610846C06900F0B5
:100DD0008050009000BF00BF01276A48006800F4FF
:100DE0008070B0B96748006840F480706549086059
:100DF000FFF7DAFC054606E0FFF7D6FC401B642847
:100E000001D90320C0E65F48006800F48070002824
:100E1000F2D000BFE068012806D15748006A40F0D0
:100E200001005549086227E0E06858B95248006A55
:100E300020F00100504908620846006A20F00400D2
:100E4000086219E0E06805280BD14B48006A40F0C1
:100E50000400494908620846006A40F0010008623F
:100E60000AE04548006A20F001004349086208464C
:100E7000006A20F00400086200BFE068A0B1FFF73C
:100E800093FC054609E0FFF78FFC401B41F28831D7
:100E9000884202D9032077E622E03748006A00F052
:100EA00002000028EFD012E0FFF77EFC054608E0C4
:100EB000FFF77AFC401B41F28831884201D90320B8
:100EC00062E62D48006A00F002000028F0D1012FF0
:100ED00005D12948C06920F080502749C86100BF6A
:100EE000E069C8B32448406800F00C00082860D0CE
:100EF000E069022848D1002020490866FFF754FC29
:100F0000054606E0FFF750FC401B022801D90320EC
:100F10003AE61948006800F000700028F2D1206A13
:100F2000B0F5803F07D11448406820F40030A16834
:100F3000084311494860D4E9080108430E4949684B
:100F400021F4741108430C49486001200B490866DC
:100F5000FFF72AFC054607E03DE0FFF725FC401BB4
:100F6000022801D903200FE60348006800F0007052
:100F70000028F2D02FE000000010024000004242A2
:100F80008004424200700040002014490866FFF7C8
:100F90000BFC054606E0FFF707FC401B022801D9C1
:100FA0000320F1E50E48006800F000700028F2D13F
:100FB00011E0E069012800D1E6E50948466806F439
:100FC0008031206A814204D106F47011606A814246
:100FD00001D00120D8E50020D6E500000000424203
:100FE0000010024010B504460CB9012010BD606A23
:100FF00038B96068B0F5827F00D105E00021E16179
:1010000002E00021216161610021A16294F8510098
:1010100028B9002084F85000204600F043F8022050
:1010200084F851002068006820F0400021680860C2
:10103000A08800F48270218901F404410843A18949
:1010400001F400610843217C01F002010843217D85
:1010500001F001010843218B01F400710843217F55
:1010600001F0380108432021095D01F080010843A7
:10107000218D01F400510843216808600421A06912
:1010800001EA1040216848602068C06920F40060CF
:101090002168C86100206065012084F851000020AB
:1010A000A4E7000010B586B004460020029003902B
:1010B000049005901949206888422DD100BF184836
:1010C000806940F48050164988610846806900F4C0
:1010D0008050019000BF00BF00BF0846806940F00B
:1010E000040088610846806900F00400019000BF98
:1010F00000BFA0200290022003900320059002A9C7
:101100000848FFF7B1F940200290002003900490B6
:1011100002A90448FFF7A8F906B010BD003001404D
:10112000001002400008014070B504462546681EC4
:10113000B0F1807F01D301200FE0681E4FF0E02165
:1011400048610F214FF0FF3001F0F4F900204FF01B
:10115000E021886107200861002070BD10B50346BA
:10116000002200BF93F83C00012801D1022010BDED
:10117000012083F83C0000BF22F0FF00CC6840EA69
:10118000040222F440708C6840EA040222F4806079
:101190004C6840EA040222F400600C6840EA040251
:1011A00022F480500C6940EA040222F400504C6999
:1011B00040EA040222F48040CC6940EA0402186844
:1011C000426400BF002083F83C0000BF00BFCEE7B0
:1011D00030B502460B4600BF92F83C00012801D111
:1011E000022030BD012082F83C0000BF022082F8BE
:1011F0003D00106844681068816824F07004186825
:10120000044310684460104D1068A8420BD0106869
:10121000B0F1804F07D00D4D1068A84203D00C4D9F
:101220001068A84205D121F0800158680143106878
:101230008160012082F83D0000BF002082F83C0060
:1012400000BF00BFCDE70000002C014000040040BB
:101250000008004010B504460CB9012010BD94F8F8
:101260003D0028B9002084F83C00204600F026F814
:10127000022084F83D00211D206800F0FBFE0120C3
:1012800084F8460000BF84F83E0001213F2001554C
:10129000402001554120015500BF00BF012084F8C6
:1012A000420043200155442001554520015500BF0F
:1012B000012084F83D000020D0E7000008B5244A52
:1012C000016891420DD100BF2249896941F4006152
:1012D000204A91611146896901F40061009100BFC3
:1012E00035E00168B1F1804F0DD100BF1949C969DE
:1012F00041F00101174AD1611146C96901F00101AC
:10130000009100BF23E0144A016891420DD100BF53
:101310001049C96941F002010E4AD1611146C969FB
:1013200001F00201009100BF11E00C4A01689142F6
:101330000DD100BF0749C96941F00401054AD161D7
:101340001146C96901F00401009100BF00BF08BD4A
:10135000002C014000100240000400400008004042
:101360002DE9F04104460D46002700BF94F83C00EB
:10137000012802D10220BDE8F081012084F83C0060
:1013800000BF022084F83D002068866826F07706BA
:1013900026F47F46206886602868502833D00CDC0D
:1013A000202850D004DC00284BD0102851D149E02F
:1013B000302849D040284CD139E060282DD0702801
:1013C00007D0B0F5805F03D0B0F5005F41D10DE0EC
:1013D00041E0D5E902136A68206800F09EFE2068AB
:1013E000866846F077062068866034E0D5E9021307
:1013F0006A68206800F091FE2068806840F48040B0
:101400002168886027E0EA686968206800F056FF74
:101410005021206800F08CFE1DE0EA6869682068B1
:1014200000F05FFF6021206800F082FE13E0EA68B0
:101430006968206800F042FF4021206800F078FED3
:1014400009E000BF00BF00BF2968206800F070FEFF
:1014500001E0012700BF00BF012084F83D0000BF6C
:10146000002084F83C0000BF384684E710B586B001
:101470000446002002900390049005903C492068A7
:10148000884217D100BF3B48806940F004003949C9
:1014900088610846806900F00400019000BF00BF29
:1014A0000815029002200390059002A93248FEF729
:1014B000DBFF5BE02068B0F1804F16D100BF2D4804
:1014C000806940F004002B4988610846806900F07B
:1014D0000400019000BF00BF02200290039005901D
:1014E00002A92548FEF7C0FF40E024492068884251
:1014F00021D100BF1F48806940F008001D49886164
:101500000846806900F00800019000BF00BF10206D
:10151000029002200390059002A91948FEF7A4FF4B
:1015200000BF1849486820F4406040F0E06040F493
:10153000006048601AE014492068884216D100BF54
:101540000C48806940F008000A49886108468069B3
:1015500000F00800019000BF00BF48150290022073
:101560000390059002A90648FEF77EFF06B010BD65
:10157000002C01400010024000080140000400401F
:10158000000C014000000140000800402DE9F0413E
:1015900004460D461646002700BF94F83C0001287B
:1015A00002D10220BDE8F081012084F83C0000BF98
:1015B00036B1042E1BD0082E31D00C2E5ED145E062
:1015C0002946206800F0BEFD2068806940F00800D0
:1015D000216888612068806920F0040021688861A2
:1015E00020688069296908432168886148E02946A4
:1015F000206800F0D7FD2068806940F40060216811
:1016000088612068806920F4806021688861206892
:101610008069296940EA01202168886130E0294613
:10162000206800F0F3FD2068C06940F008002168E0
:10163000C8612068C06920F004002168C861206882
:10164000C069296908432168C86119E029462068F2
:1016500000F010FE2068C06940F400602168C86195
:101660002068C06920F480602168C8612068C06972
:10167000296940EA01202168C86101E0012700BF13
:1016800000BF00BF002084F83C0000BF384689E757
:1016900010B504460CB9012010BD94F83D0028B9DE
:1016A000002084F83C00204600F025F8022084F851
:1016B0003D00211D206800F0DDFC012084F846007B
:1016C00000BF84F83E0001213F2001554020015514
:1016D0004120015500BF00BF012084F84200432093
:1016E0000155442001554520015500BF012084F8D3
:1016F0003D000020D0E7704770B504460D4615B98F
:1017000094F83E000BE0042D02D13F20005D06E07E
:10171000082D02D14020005D01E04120005D01283C
:1017200001D0012070BD1DB9022084F83E000EE0FA
:10173000042D03D102213F20015508E0082D03D1DB
:1017400002214020015502E00221412001550122E1
:101750002946206800F0D0FC19492068884201D150
:10176000012000E0002028B12068406C40F40040D7
:10177000216848641249206888420BD02068B0F183
:10178000804F07D00F492068884203D00E49206857
:1017900088420CD12068806800F00706062E0CD025
:1017A0002068006840F001002168086005E02068BA
:1017B000006840F00100216808600020B2E70000E6
:1017C000002C0140000400400008004010B5044611
:1017D0000CB9012010BDA06900B100E000BF94F871
:1017E000410028B9002084F84000204600F02AF883
:1017F000242084F841002068C06820F4005021684B
:10180000C860204600F0B8FD2068006920F49040D0
:10181000216808612068406920F02A002168486139
:101820002068C06840F400502168C86000206064EF
:10183000202084F8410084F842000020606300BF4B
:10184000C8E7000010B586B004460020029003905F
:10185000049005901949206888422DD100BF18488E
:10186000C06940F400301649C8610846C06900F4F8
:101870000030019000BF00BF00BF0846806940F003
:10188000040088610846806900F00400019000BFF0
:1018900000BF04200290022003900320059002A9BB
:1018A0000848FEF7E1FD0820029000200390049014
:1018B00002A90448FEF7D8FD06B010BD0044004060
:1018C00000100240000801402DE9F84F04460E4682
:1018D000174699464FF0000A94F84100202850D14D
:1018E00006B117B90120BDE8F88F002060642120FF
:1018F00084F84100FEF758FF8246A784E784A06879
:10190000B0F5805F04D1206910B90025B04602E02F
:1019100035464FF000081EE0534600228021204645
:10192000CDF8009000F0A6FD20B1202084F8410001
:101930000320D8E745B9B8F80000C0F308002168D3
:10194000486008F1020803E02878216848606D1CAF
:10195000E08C401EE084E08C0028DDD1534600225C
:1019600040212046CDF8009000F084FD20B12020D9
:1019700084F841000320B6E7202084F841000020CD
:10198000B1E70220AFE700BFFEE710B500F00CF8AA
:101990004FF4FA7001F0B2FD00F006F810BD10B57A
:1019A00000F002F810BD000010B500220421064826
:1019B000FEF7F4FE642001F0A1FD0122042102489B
:1019C000FEF7ECFE10BD0000000C014010B504460F
:1019D0006078012824DC207830B962784FF4805197
:1019E0002048FEF7DBFE3BE02078012805D1627835
:1019F00081031D48FEF7D2FE32E02078022805D18F
:101A0000627881021748FEF7C9FE29E02078032892
:101A100026D162784FF400411348FEF7BFFE1FE065
:101A2000207828B94FF480510E48FEF7ADFE17E03C
:101A30002078012804D181030B48FEF7A5FE0FE0B2
:101A40002078022804D181020648FEF79DFE07E0B7
:101A50002078032804D14FF400410348FEF794FE98
:101A600010BD000000080140000C0140B0F9021058
:101A7000B1F57A7F02DB4FF47A7107E0B0F902101A
:101A8000002901DC002101E0B0F902104180017859
:101A900029B9B0F902100F4A1268516319E00178B0
:101AA000012905D1B0F902100B4A1268116410E047
:101AB0000178022905D1B0F90210084A1268916331
:101AC00007E00178032904D1B0F90210044A126832
:101AD000D16370478C010020D40100204401002014
:101AE000FC00002000B50648FFF7C0FF0548FFF7DF
:101AF000BDFF0548FFF7BAFF0448FFF7B7FF00BD79
:101B00009000002094000020980000209C000020FD
:101B100010B500210D48FFF7EFFD0C210C48FFF731
:101B2000EBFD04210B48FFF7E7FD08210A48FFF70A
:101B3000E3FD002009494880094948800949488057
:101B400009494880FFF7CEFF10BD00008C0100203E
:101B5000D401002044010020FC000020900000205F
:101B600094000020980000209C00002000B585B063
:101B70000020019002900390049000BF3E488069CD
:101B800040F010003C4988610846806900F0100070
:101B9000009000BF00BF00BF0846806940F02000F1
:101BA00088610846806900F02000009000BF00BFF7
:101BB00000BF0846806940F00400886108468069DB
:101BC00000F00400009000BF00BF00BF084680691D
:101BD00040F0080088610846806900F00800009025
:101BE00000BF00BF01224FF488712448FEF7D6FDE4
:101BF000012204212248FEF7D1FD00224FF440418A
:101C00001F48FEF7CBFD00224FF4C0511B48FEF7E2
:101C1000C5FD41F6101001900120029000200390B4
:101C20000220049001A91548FEF71EFC0420019033
:101C300011200290002003900220049001A9104876
:101C4000FEF712FC4FF4404001900120029000206A
:101C500003900220049001A90948FEF705FC4FF407
:101C600000700190002002900120039001A9034818
:101C7000FEF7FAFB05B000BD00100240000801406D
:101C8000000C014010B50E480E4908604FF48270F8
:101C9000486000210B488160C160016141614FF4DF
:101CA000007181610821C16100210162416281628C
:101CB0000A21C162FFF796F908B1FEF7D1FB10BD0A
:101CC00000300140A400002000B595B00020119024
:101CD0001290139014900F9010901C2108A8FEF7FA
:101CE00074FA20216846FEF770FA2C482C490860E7
:101CF0000320486000212A48816040F2E731C1603A
:101D00000021016141618161FFF7A4FA08B1FEF78A
:101D1000A7FB4FF48050119011A92148FFF720FB39
:101D200008B1FEF79DFB1E48FFF7B2FC08B1FEF7B5
:101D300097FB00200F9010900FA91948FFF748FA61
:101D400008B1FEF78DFB60200890002009900A90F2
:101D50000B9004200C9000200D900E90082208A9F2
:101D60000F48FFF713FC08B1FEF77AFB0020009044
:101D700001900290039004904FF4005005900020D1
:101D8000079069460648FFF7E9F908B1FEF768FBD6
:101D90000348FFF76BFB15B000BD0000002C0140AD
:101DA000FC00002000B58DB0002009900A900B9037
:101DB0000C90079008901C216846FEF706FA4FF039
:101DC0008040204908600320486000211D48816050
:101DD00040F2E731C160002101618161FFF73AFA09
:101DE00008B1FEF73DFB4FF48050099009A9154852
:101DF000FFF7B6FA08B1FEF733FB1248FFF748FCCD
:101E000008B1FEF72DFB00200790089007A90D48A8
:101E1000FFF7DEF908B1FEF723FB602000900020F9
:101E20000190029004200490042269460548FFF7BF
:101E3000ADFB08B1FEF714FB0248FFF717FB0DB02E
:101E400000BD00004401002000B58DB000200990C5
:101E50000A900B900C90079008901C216846FEF7A2
:101E6000B4F92048204908600320486000211E483A
:101E7000816040F2E731C160002101618161FFF7BB
:101E8000E9F908B1FEF7ECFA4FF48050099009A97E
:101E90001548FFF765FA08B1FEF7E2FA1248FFF7B6
:101EA000F7FB08B1FEF7DCFA00200790089007A9BD
:101EB0000D48FFF78DF908B1FEF7D2FA60200090C7
:101EC00000200190029004200490002269460648F8
:101ED000FFF75CFB08B1FEF7C3FA0348FFF7C6FA49
:101EE0000DB000BD000400408C01002000B58DB095
:101EF000002009900A900B900C90079008901C21EC
:101F00006846FEF762F920482049086003204860CF
:101F100000211E48816040F2E731C160002101616B
:101F20008161FFF797F908B1FEF79AFA4FF48050F4
:101F3000099009A91548FFF713FA08B1FEF790FABE
:101F40001248FFF7A5FB08B1FEF78AFA00200790B8
:101F5000089007A90D48FFF73BF908B1FEF780FA92
:101F600060200090002001900290042004900C2238
:101F700069460648FFF70AFB08B1FEF771FA034805
:101F8000FFF774FA0DB000BD00080040D401002036
:101F900010B50B480B4908604FF4E1304860002150
:101FA00008488160C16001610C21416100218161AB
:101FB000C161FFF70BFC08B1FEF752FA10BD00003B
:101FC000004400401C02002000BFFEE700BFFEE707
:101FD00008B508490968C9084FF47A72B1FBF2F1F3
:101FE0004143009100BF00BF00994A1E00920029A2
:101FF000F9D108BD0C00002010B5FEF7DBFB01F0A5
:1020000011FC012801D001F085FB10BD00B58FB097
:10201000282105A8FEF7D9F814216846FEF7D5F85F
:1020200001200590000406900020079001200990EF
:1020300002200C90C1030D914FF4E0110E9105A800
:10204000FEF79EFD08B1FEF70BFA0F20009002206C
:102050000190002002904FF48060039000200490D3
:1020600002216846FEF768FC08B1FEF7F9F90FB0E7
:1020700000BD704710B502681C4B984208D0B0F103
:10208000804F05D01A4B984202D01A4B984203D188
:1020900022F070024B681A43144B984208D0B0F1FA
:1020A000804F05D0124B984202D0124B984203D178
:1020B00022F44072CB681A4322F080034C6943EA51
:1020C000040202608B68C3620B688362074B98420C
:1020D00001D10B69036301234361036903F0010329
:1020E0001BB1036923F00103036110BD002C014003
:1020F000000400400008004030B501F01F05012435
:1021000004FA05F3046A9C430462046A01F01F05A3
:1021100002FA05F52C43046230BD30B50C468168E7
:1021200021F47F4142EA032525432943816030BDE4
:102130000A46816821F0700142F00703194381606B
:102140007047000030B5026A056A25F00105056296
:102150004368846924F0700424F003040D682C4360
:1021600022F002028D682A430D4DA84206D100BF1D
:1021700022F00802CD682A4322F00402084DA8424A
:1021800007D123F4807323F400734D692B438D69C9
:102190002B43436084614D684563026230BD00009B
:1021A000002C014030B5026A056A25F01005056271
:1021B0004368846924F4E04424F440740D6844EADC
:1021C000052422F020028D6842EA05120E4DA84235
:1021D00007D100BF22F08002CD6842EA051222F04A
:1021E0004002094DA84209D123F4806323F400631F
:1021F0004D6943EA85038D6943EA85034360846141
:102200004D688563026230BD002C014030B5026A22
:10221000056A25F4807505624368C46924F070047A
:1022200024F003040D682C4322F400728D6842EA06
:1022300005220F4DA84207D100BF22F40062CD68ED
:1022400042EA052222F48062094DA84209D123F412
:10225000805323F400534D6943EA05138D6943EA23
:1022600005134360C4614D68C563026230BD000060
:10227000002C014030B5036A056A25F480550562DB
:102280004468C26922F4E04222F440720D6842EAD6
:10229000052223F400538D6843EA0533064DA84216
:1022A00004D124F480444D6944EA85144460C26139
:1022B0004D680564036230BD002C014030B50B460B
:1022C0001446026A056A25F001050562816921F05C
:1022D000F00141EA041122F00A021A43816102620C
:1022E00030BD30B50B461446026A056A25F010056C
:1022F0000562816921F4704141EA043122F0A002B3
:1023000042EA03128161026230BD00BF00BF026871
:102310000C3252E8002F22F4907102680C3242E82D
:102320000013002BF3D100BF00BF00BF02681432BE
:1023300052E8002F22F001010268143242E8001333
:10234000002BF3D100BF016B01290ED100BF00BFEC
:1023500002680C3252E8002F22F0100102680C32A1
:1023600042E80013002BF3D100BF202180F8421077
:10237000002101637047000070B5044621680969B7
:1023800021F44051E2681143226811612269A16879
:102390001143626941EA02052168C96841F20C6291
:1023A000914329432268D1602168496921F4407131
:1023B000A2691143226851612D4A2168914202D1DC
:1023C000FEF796FB01E0FEF783FB00EBC00101EB9B
:1023D000001162689200B1FBF2F100EBC00202EB67
:1023E000001263689B00B2FBF3F26423B2FBF3F2CA
:1023F00002EBC20303EB0212A1EB8201322202EBD9
:1024000001116422B1FBF2F101F0F00100EBC00216
:1024100002EB001263689B00B2FBF3F26423B2FB91
:10242000F3F201EB021200EBC00101EB0011636853
:102430009B00B1FBF3F100EBC00303EB00136668F4
:10244000B600B3FBF6F36426B3FBF6F303EBC30667
:1024500006EB0313A1EB8301322303EB0111642389
:10246000B1FBF3F101F00F0111442268916070BDDE
:10247000003801402DE9F84304460D4617469846BA
:10248000089E31E0701C70B3FEF78EF9A0EB0800D7
:10249000B04200D816B90320BDE8F8832068C068B0
:1024A00000F00400F8B1802D1ED0402D1CD0206813
:1024B0000068C0F3C000B0B100BF002000902068E9
:1024C0000068009020684068009000BF00BF204670
:1024D000FFF71BFF0820606400BF002084F8400065
:1024E00000BF0120D8E7FFE7206800682840A84225
:1024F00001D1012000E00020B842C3D00020CBE78A
:1025000000BFFEE70FB4054B10B503A9044A0298BB
:1025100000F034F810BC5DF814FB0000E529000859
:10252000A000002002480068C0F3022070470000AD
:102530000CED00E010B5002804DB0A07130E054A75
:10254000135406E00A07140E034A00F00F031B1F82
:10255000D45410BD00E400E018ED00E002E008C82B
:10256000121F08C1002AFAD170477047002001E00D
:1025700001C1121F002AFBD1704700002DE9FF4F57
:102580008BB088460546002606E025280BD0DDE9FD
:102590000D1290476D1C761C28780028F5D10FB0DD
:1025A0003046BDE8F08F0024A146A2460122AE4984
:1025B00000E0044315F8013F203B02FA03F0084213
:1025C000F7D128782A2810D06FF02F022878A0F1B0
:1025D0003001092915D809EB890102EB410144F0CA
:1025E000020400EB01096D1CF0E758F8041B5FEAD8
:1025F000010903D544F40054C9F1000944F0020470
:102600006D1C28782E2817D115F8010F44F004040A
:102610002A280ED06FF02F022878A0F13001092966
:102620000AD80AEB8A0102EB410100EB010A6D1C9A
:10263000F2E758F804AB6D1C28786C280FD006DC44
:102640004C2817D068280DD06A2814D104E07428CB
:1026500010D07A280FD10DE044F400140AE044F4BD
:10266000801401E044F440146978814202D104F5F9
:1026700080146D1C6D1C2878692865D006DC002844
:102680008DD0632827D0642806D15DE06E2808D05D
:1026900073282AD0752877D0DDE90D129047761C73
:1026A000E0E0C4F30250022809D003280DD0D8F886
:1026B000001004280DD00E6008F10408D2E0D8F80C
:1026C0000010F217C1E90062F6E7D8F800100E809A
:1026D000F2E70E70F0E718F8041B8DF800100020E8
:1026E0008DF80100EB46012003E058F804BB4FF0E1
:1026F000FF3061074FF0000701D40AE07F1C574507
:102700000DDA8742FADB1BF807100029F6D106E044
:102710007F1C8742FCDB1BF807100029F8D1DDE99C
:102720000D23A9EB07008146214600F0B1F83044A3
:10273000C61904E0DDE90D121BF8010B90477F1E5E
:10274000F8D22146484688E058F8040BC4F30251F9
:102750004FF00A0B032900D100B2042900D140B286
:10276000002802DA40422D2102E0210505D52B2167
:102770008DF82410012104E006E0E10710D02021AB
:10278000F6E708AF089113E058F8040BC4F30251C0
:102790004FF00A0B032900D180B2042900D1C0B246
:1027A0000021EEE75946FDF72BFD303107F8011DFA
:1027B0000028F7D1ADEB070000F1200B600702D530
:1027C00024F4803401E04FF0010ADA4502DDAAEB7F
:1027D0000B0000E00020824600EB0B01089801444A
:1027E000A9EB01000A90E00306D4DDE90D232146A0
:1027F0000A9800F04DF806444FF0000908E009A9D6
:1028000011F80900DDE90D12904709F10109761C64
:1028100008998945F3DBE0030CD5DDE90D2321465A
:102820000A9800F035F8064404E0DDE90D12302086
:102830009047761CBAF10001AAF1010AF5DC05E027
:10284000DDE90D1217F8010B9047761CBBF1000172
:10285000ABF1010BF4DC0A982146DDE90D2300F011
:1028600005F806446D1C97E6092801002DE9F041A2
:10287000044600251E461746880404D405E0394660
:102880002020B0476D1C641EF9D52846BDE8F081B4
:102890002DE9F041044600251E469046C80301D5A7
:1028A000302700E02027880404D505E0414638465B
:1028B000B0476D1C641EF9D52846BDE8F0810000C4
:1028C00008B55C210DA0FDF78BFC28B15C210BA0A5
:1028D000FDF786FC401C00E008A00446F3222146D8
:1028E0000CA0FFF70FFE00F0ADFF009005E000BF69
:1028F0000621684600F05CFF00BFF8E72E2E5C4121
:1029000070705C7461736B5C4170705F5461736B69
:102910002E6300005B253135733A2534645D202D2C
:102920002D20436F6D6D756E69636174696F6E20E4
:102930005461736B2053746172742E2E2E0D0A0035
:1029400008B55C2113A0FDF74BFC28B15C2111A058
:10295000FDF746FC401C00E00EA00446E2222146A2
:1029600012A0FFF7CFFD00F06DFF00900020194985
:10297000488019494880194948801949488007E02A
:10298000FFF7B0F800BF0421684600F011FF00BF58
:10299000F6E700002E2E5C4170705C7461736B5C16
:1029A0004170705F5461736B2E6300005B2531359D
:1029B000733A2534645D202D2D20466C67687420A1
:1029C0005461736B205374617472742E2E2E0D0A31
:1029D0000000000094000020900000209C000020D7
:1029E0009800002013B50C464FF47A730122694613
:1029F0000248FEF769FF00981CBD00001C02002081
:102A000008B55C2142A0FDF7EBFB28B15C2140A09A
:102A1000FDF7E6FB401C00E03DA005468F2229465D
:102A200041A0FFF76FFD00F00DFF009000246EE065
:102A30004648007848B902204549487045494870E1
:102A4000454948704549487022E04548007848B9F2
:102A50000A203F4948703F4948703F4948703F4904
:102A6000487015E03F48007848B90F203849487051
:102A700039494870374948703849487008E01E2085
:102A80003349487034494870324948703349487076
:102A9000641C32484078012806DD30484078B4FB99
:102AA000F0F100FB114010B92C48FEF78FFF2A48C7
:102AB0004078012806DD28484078B4FBF0F100FB9F
:102AC000114010B92448FEF781FF224840780128C0
:102AD00006DD20484078B4FBF0F100FB114010B94E
:102AE0001C48FEF773FF1A484078012806DD184895
:102AF0004078B4FBF0F100FB114010B91448FEF728
:102B000065FF00BF3221684600F052FE00BF8FE72C
:102B10002E2E5C4170705C7461736B5C4170705FF1
:102B20005461736B2E6300005B253135733A253495
:102B3000645D202D2D204C4544205461736B20533F
:102B4000746172742E2E2E0D0A0000008E0000207B
:102B50008A000020880000208600002084000020D9
:102B60008D0000208C000020FDF730FEFFF74EFAAC
:102B7000FEF7FCFFFFF70CFAFFF7A6F8FFF712F9D4
:102B8000FFF762F9FFF7B2F9FFF77CF8FDF7BCFB3E
:102B900000BFFEE75C2123A0FDF722FB28B15C21EA
:102BA00020A0FDF71DFB401C00E01EA0044678227B
:102BB000214622A0FFF7A6FC00F044FE30E042F2DE
:102BC00010720121002000F0B7FB002814D05C2116
:102BD00014A0FDF705FB28B15C2112A0FDF700FB56
:102BE000401C00E00FA00446812221461CA0FFF7F4
:102BF00089FCFEF7CAFE13E05C210AA0FDF7F0FA9B
:102C000028B15C2107A0FDF7EBFA401C00E005A00D
:102C100004468622214619A0FFF774FCFEF7BFFE8A
:102C2000CDE700002E2E5C4170705C7461736B5CAC
:102C30004170705F5461736B2E6300005B2531350A
:102C4000733A2534645D202D2D20506F77657220F6
:102C50005461736B2053746172742E2E2E0D0A0012
:102C60005B253135733A2534645D202D2D20434C8E
:102C70006F73696E672E2E2E0D0A00005B253135AD
:102C8000733A2534645D202D2D20506F776572696D
:102C90006E672E2E2E0D0A002DE9F04105460E46D8
:102CA0002648076826480068001D00F089FB50B9D7
:102CB0002348006890F82C100120884021490968B9
:102CC000814320480160681CD8B9D6B11E494868C4
:102CD0001B49096888601A4982680968CA601849EE
:102CE0000968091D8268516015490968091D8160DC
:102CF000154A134909684A6111460968491C11605F
:102D00001AE07C190E4800684460BC4207D20C48A7
:102D10000168091D0D48006800F076FB0CE00848CA
:102D20000168091D0A48006800F06EFB0948006848
:102D3000844201D207480460BDE8F08158000020B9
:102D4000440000205C000020343500204C000020AE
:102D5000480000207400002010B5044600F07AFB03
:102D600031480068401C304908603048006840B96C
:102D70002E4804600846006801280DD100F020F9B3
:102D80000AE02B48006838B928480068C06AE16A40
:102D9000884201D82548046026480068401C25491F
:102DA000086008460068606494F82C100120884090
:102DB00021490968084320490860E16A01EB810163
:102DC0001E4A02EB81014868A0608268E260211D12
:102DD000826851608160E16A01EB8101174A02EB70
:102DE00081026261E16A01EB8101144A52F821100B
:102DF000491CE26A02EB8202104B43F8221000F0F9
:102E00003BFB0B48006868B108480068C06AE16A8B
:102E1000884207D24FF0805009490860BFF34F8FB6
:102E2000BFF36F8F10BD000054000020440000204D
:102E300060000020700000205C0000206432002050
:102E400004ED00E010B516E000F004FB0C48C0688B
:102E5000C468201D00F0B4FA0A480068401E094901
:102E6000086009480068401E0749086000F004FB3C
:102E7000204600F00BF8044800680028E4D110BD9B
:102E800020350020540000205000002010B50446DA
:102E9000206B00F001FB204600F0FEFA10BD0000A0
:102EA00030B54FF44053154800F007042CB1C01D55
:102EB00020F00700114C041B1B1B0246104C226023
:102EC00000240F4D6C60D018083820F007000D4C1E
:102ED000206000240B4D2D686C600A4D2D682C601D
:102EE0001146441A4C60074C24680C60064D4C682F
:102EF0002C60064D4C682C6030BD00006402002040
:102F0000280000203000002038000020340000207D
:102F100000BFFFF797FF064800680128F9D94FF076
:102F2000805004490860BFF34F8FBFF36F8FF0E705
:102F30006432002004ED00E02DE9F05F81460E468A
:102F400090469A460A9F0C9C4FEA8801A522206B66
:102F5000FDF734F9A8F10100216B01EB800B2BF098
:102F6000070B7EB1002507E0715D04F13400415587
:102F7000705D00B902E06D1C102DF5D300BF00217B
:102F800043200155202F00D31F27E762E764201D4F
:102F900000F037FA04F1180000F033FA2461C7F1A9
:102FA0002000A061646252464946584600F006F986
:102FB00020600B9808B10B980460BDE8F09F0000FA
:102FC00010B5002407E004EB84010F4A02EB8100F6
:102FD00000F00AFA641C202CF5D30C4800F004FA27
:102FE0000B4800F001FA0B4800F0FEF90A4800F027
:102FF000FBF90A4800F0F8F9044809490860044858
:103000000849086010BD000064320020E43400204C
:10301000F83400200C350020203500203435002005
:10302000480000204C00002010B50146164800E082
:10303000006803688B42FBD30246436813448B420B
:1030400004D143684C682344436001460A464B68F8
:1030500013440468A34211D10C4C03682468A342B2
:1030600008D04B680468646823444B6003681B689D
:103070000B6005E0054B1B680B6001E003680B600B
:10308000884200D0016010BD2800002030000020E0
:1030900009480068006808B9012000E0002020B15C
:1030A0004FF0FF300549086005E003480068C0683C
:1030B0000068024908607047480000207400002042
:1030C00000BF502080F31188BFF34F8FBFF36F8F85
:1030D00000BF00BFFEE700002DE9F04705464FF0B6
:1030E000000900F0C5FA3048006808B9FFF7D8FEBB
:1030F00075B105F00700C0F11008C8F1FF30A84213
:1031000001D2012000E0002008B9454400E000257C
:10311000012000EBE570002841D0002D3FD023486E
:10312000006885423BD8224E3046046801E02646BE
:1031300024686068A84202D220680028F7D11A48A3
:10314000006884422BD0306800F1080920683060A4
:103150006068401B102807D967196068401B7860B9
:1031600065603846FFF760FF104960680968081A13
:103170000E490860084600680E490968884203D273
:103180000A4800680B490860606840F000406060D1
:103190000020206008480068401C0749086000F0D3
:1031A0001FFC4846BDE8F0873000002034000020B6
:1031B00028000020380000203C000020001F4FF0B5
:1031C00080730360001F21F001030360001F034BA5
:1031D000036014380260203870470000C1300008D6
:1031E0007CB505465C2127A0FCF7FAFF28B15C21DD
:1031F00024A0FCF7F5FF401C00E022A0044650226A
:10320000214626A0FFF77EF92D48092100238022C0
:10321000CDE900102BA12E4800F096FA2D4802218E
:1032200000238022CDE900102BA12E4800F08CFA5B
:103230002D48082100238022CDE900102BA12E4823
:1032400000F082FA2D48082100238022CDE90010E9
:103250002BA1304800F078FA002000F069F95C21D9
:1032600008A0FCF7BDFF28B15C2106A0FCF7B8FF61
:10327000401C00E003A004467222214626A0FFF76E
:1032800041F97CBD2E2E5C4170705C7461736B5C87
:103290004170705F5461736B2E6300005B253135A4
:1032A000733A2534645D202D2D205374617274208F
:1032B0005461736B2053746172742E2E2E0D0A00AC
:1032C00014000020706F7765725F7461736B00008B
:1032D000952B0008180000206C65645F7461736BA7
:1032E00000000000012A00081C000020666C6967CD
:1032F00068745F7461736B0041290008200000202E
:10330000636F6D6D756E69636174696F6E5F746113
:10331000736B0000C12800085B253135733A2534F2
:10332000645D202D2D20E4B88DE4BC9AE689A7E8E1
:10333000A18C0D0A000000002DE9F04104460F4663
:10334000164600F087F81C480068543050F82400F6
:1033500080B90121184800686830015556B13046DF
:10336000FFF79AFC4FF0805014490860BFF34F8F6D
:10337000BFF36F8F00F080F800F06CF80E48006823
:10338000543050F824506DB137B100210A4800681C
:10339000543040F8241005E0681E0749096854318C
:1033A00041F824000021044800686830015500F00D
:1033B00063F82846BDE8F0814400002004ED00E0F9
:1033C00001460A69D1E901309860D1E901035860EA
:1033D0005068884201D188685060002008611068F8
:1033E000401E10601068704700F1080141604FF006
:1033F000FF31816000F10801C160016100210160BD
:10340000704700210161704710B502460B685C1CD3
:103410000CB9106907E002F1080000E04068446858
:1034200024689C42FAD944684C604C68A16088606A
:1034300041600A611468641C146010BD42684A60EF
:1034400093688B60936859609160086103685B1CA6
:103450000360704700BF502080F31188BFF34F8F87
:10346000BFF36F8F00BF03480068401C014908602C
:10347000704700002400002006480068401E0549EF
:1034800008600846006820B9002080F3118800BF5A
:1034900000BF70472400002070B506463546E6B1EF
:1034A000083D2C466068C00FB8B12068A8B96068B4
:1034B00020F00040606000F0DBF8084960680968AF
:1034C0000844064908602046FFF7AEFD044800683E
:1034D000401C0349086000F083FA70BD34000020EE
:1034E0004000002000204FF0E02108618861024880
:1034F00048610720086170473F19010070B5044614
:10350000002544B100F0B4F800212046FFF7C4FBC9
:1035100000F066FA05463DB94FF080500349086057
:10352000BFF34F8FBFF36F8F70BD000004ED00E05D
:1035300070B50546FFF78EFF15B92948006800E011
:1035400028460446201DFFF73BFF78B9E06A00EBF0
:103550008000244951F8200040B994F82C10012033
:1035600088402149096881431F480160A06A18B159
:1035700004F11800FFF724FF1C480068401C1B4999
:10358000086017480068844209D1211D1848FFF7D8
:1035900055FF18480068401C1649086006E01648A8
:1035A0000068401E14490860FFF772FDFFF764FFD2
:1035B0000B480068844202D02046FFF767FC0F48A2
:1035C000006858B106480068844207D14FF0805027
:1035D0000B490860BFF34F8FBFF36F8F70BD0000C2
:1035E00044000020643200205C00002070000020B5
:1035F00020350020500000205400002060000020F2
:1036000004ED00E01CB5124800210B468022CDE9F4
:10361000001010A1114800F097F80446012C14D1B5
:1036200000BF502080F31188BFF34F8FBFF36F8F1F
:1036300000BF4FF0FF300A490860012009490860C7
:1036400000200949086000F04BF8084800681CBDDC
:103650007800002049444C4500000000112F00086C
:103660007400002060000020580000207C00002032
:1036700002480068401C0149086070478000002033
:103680001248006818B10120114908601DE00020AF
:103690000F4908600F480068B0FA80F0C0F11F01C0
:1036A00001EB81020C4B03EB8200426852684260DE
:1036B00000F108024368934202D1426852684260B6
:1036C0004268D268054B1A6000BF70478000002036
:1036D000680000205C0000206432002044000020CC
:1036E00010B50A48006840F47000084908600846B0
:1036F000006840F070400860FFF7F4FE00200449C5
:103700000860FCF70FFD002010BD000020ED00E078
:103710002400002010B500BF502080F31188BFF3B3
:103720004F8FBFF36F8F00BF00F092F818B14FF0CA
:1037300080500449086000BF002080F3118800BF5A
:1037400010BD000004ED00E02DE9FF4F85B080467C
:1037500089461746DDE912ABB800FFF7BDFC064607
:1037600076B17020FFF7B8FC04462CB170212046DA
:10377000FCF72BFD266304E03046FFF78DFE00E0EA
:1037800000247CB10020CDE900ABCDE902403A46EF
:1037900049464046089BFFF7CFFB2046FFF7DCFA7F
:1037A000012501E04FF0FF35284609B0BDE8F08F54
:1037B0002DE9F047044688464FF00009FFF758FF0F
:1037C00016480668206800EB08052068B04207D953
:1037D0002068A8420BD9B54209D94FF0010906E08B
:1037E0002068A84201D8B54201D94FF001092560EF
:1037F000B9F1000F03D0A81B0021FFF74DFA00F02C
:10380000EFF807463FB94FF0805005490860BFF315
:103810004F8FBFF36F8F4846BDE8F08758000020F8
:1038200004ED00E00549096809B9012005E00449F3
:10383000096809B9022000E00020704760000020FC
:1038400080000020014908687047000058000020EF
:103850002DE9F04100275748006800287ED15648DE
:103860000068451C544805608DB95448D0F8008064
:1038700053480068514908605148C0F800805148D9
:103880000068401C4F490860FFF702FC00BF4E482B
:103890000068854276D300BF48480068006808B9D0
:1038A000012000E0002020B14FF0FF3046490860C1
:1038B00067E042480068C068C4686668B54202D2E2
:1038C000414806605DE06069D4E902128A60D4E98B
:1038D00002214A60211D42688A4201D1E1684160AB
:1038E000002262610168491E0160A06A98B1A06A65
:1038F000D4E907128A60D4E907214A6004F118016B
:1039000042688A4201D1216A41600022A2620168B4
:10391000491E016000BF94F82C10012088402B49FB
:103920000968084329490860E16A01EB8101284AD6
:1039300002EB81014868A0608268E260211D826814
:1039400051608160E16A01EB8101214A02EB810251
:103950006261E16A01EB81011D4A00E022E052F858
:103960002110491CE26A02EB8202194B43F8221033
:103970001849E06A0968C96A88428DD901278BE72E
:1039800000E000BF13480068C06A00EB80001049E7
:1039900051F82000012800D901270F48006800B124
:1039A000012704E00D480068401C0C4908603846B7
:1039B000BDE8F08180000020580000204800002071
:1039C0004C0000206C000020740000205C000020EF
:1039D00064320020440000206800002064000020C1
:1039E00070B500240026FFF735FD4B480068401EE7
:1039F000494908600846006800287DD147480068AA
:103A0000002879D05BE04648C068C468A06AD4E961
:103A100007128A60D4E907214A6004F1180142685C
:103A20008A4201D1216A41600022A2620168491ED6
:103A300001606069D4E902128A60D4E902214A6017
:103A4000211D42688A4201D1E16841600022626121
:103A50000168491E016094F82C100120884031490A
:103A6000096808432F490860E16A01EB81012E4A89
:103A700002EB81014868A0608268E260211D8268D3
:103A800051608160E16A01EB8101274A02EB81020A
:103A90006261E16A01EB8101234A52F82110491C5D
:103AA000E26A02EB8202204B43F822101F49E06ACF
:103AB0000968C96A884202D301201D490860184874
:103AC000006808B9012000E0002000289BD00CB15C
:103AD000FFF7DEFA1748056865B100BFFFF7B8FECB
:103AE00010B10120124908606D1E002DF6D1002092
:103AF000104908600E4800E009E0006838B101266E
:103B000030070D490860BFF34F8FBFF36F8FFFF78A
:103B1000B3FC304670BD000080000020540000203F
:103B20000C3500205C00002064320020440000209E
:103B3000680000206400002004ED00E0020304059A
:103B4000060708090A0B0C0D0E0F101001020000E9
:103B5000000000000000010203040607080900003D
:103B60000000010203040000883B00080000002060
:103B7000A40000005C2500082C3C0008A4000020E4
:103B8000A43C00006C2500080000000010000000AC
:103B90000100000000127A00000000000000000098
:103BA000000000000000000000000000AAAAAAAA6D
:103BB0000000000000000000000000000000000005
:103BC00000000000000000000000000000000000F5
:103BD00000000000000000000000000000000000E5
:103BE00000000000000000000000000000000000D5
:103BF00000000000000000000000000000000000C5
:103C0000000000001F000000000000000000010094
:103C10000200030002020200000000000200000097
:0C3C200001000000030000000000000094
:04000005080000ED02
:00000001FF
