:020000040800F2
:10000000B03B0020990100085D170008E3150008C7
:10001000591700087D080008F919000800000000C1
:1000200000000000000000000000000001010008C6
:100030008308000800000000450100088917000837
:10004000B3010008B3010008B3010008B3010008C0
:10005000B3010008B3010008B3010008B3010008B0
:10006000B3010008B3010008B3010008B3010008A0
:10007000B3010008B3010008B3010008B301000890
:10008000B3010008B3010008B3010008B301000880
:10009000B3010008B3010008B3010008B301000870
:1000A000B3010008B3010008B3010008B301000860
:1000B000B3010008B3010008B3010008B301000850
:1000C000B3010008B3010008B3010008B301000840
:1000D000B3010008B3010008B3010008B301000830
:1000E000B3010008B3010008B3010008DFF80CD029
:1000F00000F096FA0048004745230008B03B002076
:10010000224B19680868B0E8F00F80F30988BFF344
:100110006F8F4FF0000080F311884EF00D0E704786
:100120000000000006480068006880F3088862B696
:1001300061B6BFF34F8FBFF36F8F00DF00BF00BF0B
:1001400008ED00E0EFF30980BFF36F8F0F4B1A68E3
:1001500020E9F00F106008B54FF0500080F31188CF
:10016000BFF34F8FBFF36F8F02F0ACFE4FF0000074
:1001700080F31188BDE8084019680868B0E8F00FFE
:1001800080F30988BFF36F8F704700BF3C000020E9
:10019000EFF3058070470000064880470648004797
:1001A000FEE7FEE7FEE7FEE7FEE7FEE7FEE7FEE727
:1001B000FEE7FEE703180008ED000008202A04DB34
:1001C000203A21FA02F00021704721FA02F3D040D0
:1001D000C2F120029140084319467047D2B201E0B3
:1001E00000F8012B491EFBD270470022F6E710B53C
:1001F00013460A4604461946FFF7F0FF204610BD95
:100200000246C9B200E0401C0378002BFBD102E09B
:1002100003788B4203D0401E9042F9D200207047F1
:1002200030B50B46014600202022012409E021FAC6
:1002300002F59D4205D303FA02F5491B04FA02F5C3
:100240002844151EA2F10102F1DC30BD2DE9F05F5A
:100250000546002092469B46884606468146402435
:100260001BE02846414647462246FFF7A7FF534674
:100270005A46C01A914110D311461846224600F042
:10028000E1F92D1A67EB01084F46224601200021B3
:1002900000F0D8F917EB00094E41201EA4F101042B
:1002A000DFDC484631462A464346BDE8F09F2DE94B
:1002B000FE4F804681EA0300C00F0C46009021F0FB
:1002C000004123F00045B8EB0200A94105D24046A9
:1002D000214690461C460B46024623F00040104340
:1002E00047D0270DC7F30A00C3F30A510290401A02
:1002F000019040286BDAC3F3130040F4801B009890
:10030000924620B10023D2EB030A63EB0B0B01985A
:100310005946C0F14002504600F094F906460D4699
:1003200050465946019A00F09CF910EB08006141D3
:10033000002487EA115284EAE7731A4340D0009AF6
:1003400062B3019A012A4FEA075215DC001B61EBE8
:1003500002014FF0004202EA0752CDE90042001CC0
:1003600041F5801132462B4600F09CF903B0BDE800
:10037000F08F40462146F9E7001B61EB0201001CAB
:1003800041F5801300185B412018A2F5001747EBD8
:10039000030140EAD570B6196D4111E06D084FEACE
:1003A000360645EAC0754FEA0752001B61EB0201B1
:1003B000001C41F5801149084FEA300000195141F5
:1003C00032462B4603B0BDE8F04F00F05CB9009810
:1003D000012240000023D0EB020263EBE07300989F
:1003E00021464FEAE074B8EB000061EB0401E9E755
:1003F00083F000435BE781F0004158E72DE9FE4FB1
:1004000081EA030404F0004421F0004100944FF01D
:10041000000B23F0004350EA01045ED052EA0304CB
:100420005BD0C3F30A54C1F30A552C44A4F2F3344D
:100430000194A0FB0254C1F3130141F48011C3F3F2
:10044000130343F4801301FB024400FB034E840AB0
:10045000970A44EA815447EA8357A4FB0768029548
:100460008D0A05FB07854FEA932C04FB0C542705E6
:10047000029D4FEA065847EA1637B5EB08056EEBC2
:10048000070C870E920E47EA811742EA8312A7FBF8
:100490000201B6EB0B0164EB00042B0D43EA0C33B5
:1004A0005E1844EB1C50DA465146E7FB0201C5F3E7
:1004B00013044FEA0B3343EA14534FEA0432019C0E
:1004C00043EA0603A4F10C040294009CCDE900B4B5
:1004D00000F0E8F803B0BDE8F08F00200146F9E72E
:1004E0002DE9F04D81EA030404F0004B21F00045B2
:1004F00014464FF0000A23F0004150EA050220D0D4
:1005000054EA01021DD0C5F30A570246C5F313038E
:10051000C1F31300C1F30A5640F4801543F480136D
:10052000A7EB0608101BD64608F2FD3873EB050052
:1005300002D308F1010801E092185B41B8F1000F05
:1005400003DA00200146BDE8F08D00204FF4801151
:10055000064684460EE0171B73EB050705D3121BF6
:1005600063EB050306434CEA010C49084FEA3000EF
:1005700092185B4150EA0107EDD152EA030012D014
:1005800082EA040083EA0501084305D0101BAB4151
:1005900006D20122002306E000224FF0004302E0D1
:1005A0006FF0010253101AEB06004CEB085110EBF0
:1005B0000A0041EB0B01BDE8F04D00F064B8C1F357
:1005C0000A52C1F3130140F2FF3341F480119A4201
:1005D00002DA00200146704740F233439A42A2F209
:1005E000334202DC5242FFF7E9BD00F02BB80000B5
:1005F00030B5041E71F1000404DB4FF000444042AA
:1006000064EB0101141E73F1000405DB1C464FF07E
:100610000043524263EB0403994208BF904230BD4D
:10062000064C074D06E0E06840F0010394E807003F
:1006300098471034AC42F6D3FFF75CFD84340008D1
:10064000A4340008202A04DB203A00FA02F100203A
:1006500070479140C2F1200320FA03F31943904000
:100660007047202A06DBCB17203A41FA02F043EA12
:10067000E07306E041FA02F3D040C2F1200291405B
:1006800008431946704710B5141E73F1000408DAC8
:10069000401C41F1000192185B411A4301D120F046
:1006A000010010BD2DE9F04D92469B4611B1B1FA03
:1006B00081F202E0B0FA80F220329046FFF7C2FFEA
:1006C00004460F4640EA0A0041EA0B0153465A46E7
:1006D000084313D0114653EA010019D0C8F1400273
:1006E0005046FFF76BFD05460E46504659464246BA
:1006F000FFF7A8FF084305D0012004E02046394653
:10070000BDE8F08D0020054346EAE0762C433743F0
:100710000A986305E40AA0EB08000022FD0A44EAF7
:1007200047540A3002D500200146E9E701051019B7
:100730006941DDE9084500196941BDE8F04DA2E7CE
:100740007CB500F09DF85C2122A0FFF759FD28B18F
:100750005C2120A0FFF754FD401C00E01DA00546D1
:100760001D22294621A001F049F92B480A21002326
:100770008022CDE9001029A12B4802F007FC044695
:10078000012C12D15C2113A0FFF73AFD28B15C21A6
:1007900010A0FFF735FD401C00E00EA00546282202
:1007A000294622A001F02AF911E05C2109A0FFF7F7
:1007B00027FD28B15C2107A0FFF722FD401C00E0C7
:1007C00004A005462C22294622A001F017F902F0C8
:1007D0003BFB7CBD2E2E5C4170705C7461736B5C66
:1007E0004170705F5461736B2E6300005B2531357F
:1007F000733A2534645D202D2D206465627567E6AB
:10080000A8A1E59D97E5889DE5A78BE58C96E688F0
:1008100090E58A9F0D0A0000100000207374617239
:10082000745F7461736B0000D52900085B25313556
:10083000733A2534645D202D2D20E5889BE5BBBAF5
:10084000E4BBBBE58AA1E68890E58A9F2E2E2E0D9B
:100850000A0000005B253135733A2534645D202D94
:100860002D20E5889BE5BBBAE4BBBBE58AA1E5A4E6
:10087000B1E8B4A52E2E2E0D0A00000000BFFEE741
:100880007047704772B600BFFEE700002DE9F847D9
:100890000346002294466EE14FF0010808FA02F484
:1008A000D1F8008008EA0400A0427DD1DFF8DCA284
:1008B000D1F80480A8EB0A09D0453AD014DCB8F18D
:1008C000030F50D009DCB8F1000F31D0B8F1010F9F
:1008D0001CD0B8F1020F49D120E0B8F1110F18D0A7
:1008E000B8F1120F42D11EE0B9F5881F25D006DC01
:1008F000B9F5803F20D0B9F5801F37D11AE0B9F59E
:10090000001F18D0B9F5041F30D117E0D1F80CC082
:100910002DE0D1F80C8008F1040C28E0D1F80C800F
:1009200008F1080C23E0D1F80C8008F10C0C1EE053
:1009300000BF00BF00BF00BF00BF00BFD1F80880EC
:10094000B8F1000F02D14FF0040C0BE0D1F8088091
:10095000B8F1010F03D14FF0080C1C6102E04FF019
:10096000080C5C6103E04FF0000C00E000BF00BF2A
:10097000FF2801D8984601E003F104084646FF2805
:1009800002D84FEA820803E0A2F108084FEA88087B
:100990004746D6F800804FF00F0909FA07F928EA10
:1009A00009080CFA07F900E088E048EA0908C6F8E7
:1009B0000080D1F8048008F08058B8F1805F7DD1C4
:1009C00000BFDFF8CC81D8F8188048F00108DFF8C4
:1009D000C091C9F81880C846D8F8188008F00108F6
:1009E000CDF8008000BF00BF4FEAB9384FEA920946
:1009F00058F829504FEA82784FEA18794FF00F08DB
:100A000008FA09F825EA0805DFF88881434502D18C
:100A10004FF0000816E0DFF88081434502D14FF027
:100A200001080FE0DFF87481434502D14FF002085E
:100A300008E0DFF86C81434502D14FF0030801E084
:100A40004FF004084FEA82794FEA197908FA09F859
:100A500048EA0505DFF84C814FEA920948F8295029
:100A6000D1F8048008F48018B8F5801F0AD1DFF8A7
:100A70003881D8F8008048EA0008DFF82C91C9F8DE
:100A8000008009E0DFF82081D8F8008028EA00081B
:100A9000DFF81491C9F80080D1F8048008F4001838
:100AA000B8F5001F10D1DFF8008108F10408D8F86C
:100AB000008048EA0008DFF8F09000E05AE009F111
:100AC0000409C9F800800DE0DFF8DC8008F10408B3
:100AD000D8F8008028EA0008DFF8CC9009F1040972
:100AE000C9F80080D1F8048008F40038B8F5003F58
:100AF0000ED1DFF8B480A8F10408D8F8008048EAE5
:100B00000008DFF8A490A9F10409C9F800800DE0FD
:100B1000DFF89480A8F10408D8F8008028EA0008DB
:100B2000DFF88490A9F10409C9F80080D1F80480A5
:100B300008F48038B8F5803F0ED1DFF86C80A8F15A
:100B40000808D8F8008048EA0008DFF85C90A9F1AE
:100B50000809C9F800800DE0DFF84C80A8F108080A
:100B6000D8F8008028EA0008DFF83C90A9F10809CD
:100B7000C9F80080521CD1F8008028FA02F8B8F1B8
:100B8000000F7FF489AEBDE8F88700000000111067
:100B90000010024000080140000C0140001001401C
:100BA0000014014008000140080401400AB101613D
:100BB00001E00B04036170470148006870470000C2
:100BC00000000020034800680349097808440149EF
:100BD00008607047000000200800002010B5084899
:100BE000006840F0100006490860032000F098F803
:100BF0000F2000F007F800F02BF8002010BD0000D7
:100C00000020024070B504460E4800784FF47A7117
:100C1000B1FBF0F00C490968B1FBF0F5284600F093
:100C2000E9FB08B1012070BD102C07D2002221463B
:100C3000501E00F037F80548046001E00120F2E79B
:100C40000020F0E7080000200C0000200400002035
:100C500008B500BF1148806940F001000F49886164
:100C60000846806900F00100009000BF00BF00BF8F
:100C70000846C06940F08050C8610846C06900F06D
:100C80008050009000BF00BF00BF0549486820F0B9
:100C9000E06040F00070486000BF08BD00100240F6
:100CA000000001402DE9F05F80460D461646002702
:100CB00000F0B4FE074639462A46334601F00700E5
:100CC000C0F1070ABAF1040F02D94FF0040A01E09B
:100CD000C0F1070AD14600F1040ABAF1070F02D2A7
:100CE0004FF0000A01E0A0F1030AD4464FF0010AD8
:100CF0000AFA09FAAAF1010A0AEA020A0AFA0CFA3D
:100D00004FF0010B0BFA0CFBABF1010B0BEA030BE1
:100D10004AEA0B042146404600F088FEBDE8F09FF9
:100D200000BF00F00702064B19684FF6FF03194099
:100D3000044B0B4343EA0221014B196000BF70478B
:100D40000CED00E00000FA0570B504460D460CB944
:100D5000012070BD5A48006800F00700A8420ED27A
:100D60005748006820F007002843554908600846A6
:100D7000006800F00700A84201D00120E9E72078D0
:100D800000F0020002281DD1207800F004000428A1
:100D900005D14C48406840F4E0604A4948602078FA
:100DA00000F00800082805D14648406840F460502B
:100DB000444948604348406820F0F000A168084377
:100DC00040494860207800F0010078B3606801284D
:100DD00006D13C48006800F4003090B90120B8E723
:100DE0006068022806D13748006800F0007040B9FA
:100DF0000120AEE73348006800F0020008B9012086
:100E0000A7E73048406820F00300616808432D4997
:100E10004860FFF7D1FE064609E0FFF7CDFE801BD4
:100E200041F28831884202D9032092E707E0254841
:100E3000406800F00C006168B0EB810FEDD12048F4
:100E4000006800F00700A8420ED91D48006820F095
:100E5000070028431A4908600846006800F00700A8
:100E6000A84201D0012074E7207800F00400042893
:100E700007D11448406820F4E060E1680843114954
:100E80004860207800F00800082808D10D48406824
:100E900020F46050216940EAC1000A49486000F02E
:100EA0003FF808494968C1F30311074A515CC8403B
:100EB0000649086006480068FFF7A4FE002048E7DE
:100EC00000200240001002406A3400080C0000209C
:100ED0000400002001480068704700000C0000205A
:100EE00000B5FFF7F7FF04494968C1F30221034A3F
:100EF000515CC84000BD0000001002407A34000878
:100F000000B5FFF7E7FF04494968C1F3C221034A6E
:100F1000515CC84000BD0000001002407A34000857
:100F200070B500210022002400230020134D6968C1
:100F300001F00C05F5B1042D02D0082D19D101E006
:100F40000F4819E00F4DC1F38346AB5D01F48035C6
:100F500055B10A4D6D68C5F340450B4E725D084DA5
:100F60005D43B5FBF2F402E0084D03FB05F42046B7
:100F700002E000BF024800BF00BF70BD0010024089
:100F800000127A00583400086834000800093D0057
:100F9000F8B504460CB90120F8BD207800F0010036
:100FA000002878D0F848406800F00C0004280CD0E5
:100FB000F548406800F00C00082811D1F24840685C
:100FC00000F48030B0F5803F0AD1EF48006800F4AB
:100FD000003000285FD0606800285CD10120DBE78A
:100FE00000BF6068B0F5803F06D1E748006840F474
:100FF0008030E549086028E0606858B9E248006838
:1010000020F48030E04908600846006820F4802021
:1010100008601AE06068B0F5A02F0BD1DA480068CC
:1010200040F48020D84908600846006840F48030C9
:1010300008600AE0D448006820F48030D249086093
:101040000846006820F48020086000BF606888B10E
:10105000FFF7B2FD054606E0FFF7AEFD401B642832
:1010600001D9032098E7C848006800F40030002840
:10107000F2D010E0FFF7A0FD054606E0FFF79CFD6B
:10108000401B642801D9032086E7BF48006800F4AC
:1010900000300028F2D1207800F00200022857D159
:1010A000B948406800F00C0050B1B748406800F003
:1010B0000C00082818D1B448406800F4803098B972
:1010C000B148006800F0020020B12069012801D079
:1010D000012061E7AC48006820F0F800616940EA4F
:1010E000C100A949086033E02069E8B10120A7499F
:1010F0000860FFF761FD054606E0FFF75DFD401B58
:10110000022801D9032047E79F48006800F0020049
:101110000028F2D09C48006820F0F800616940EA9D
:10112000C1009949086013E0002098490860FFF762
:1011300043FD054606E0FFF73FFD401B022801D9AD
:10114000032029E79048006800F002000028F2D14F
:10115000207800F0080008282DD1A069B8B101203E
:101160008B490860FFF728FD054606E0FFF724FDE0
:10117000401B022801D903200EE78348406A00F093
:1011800002000028F2D0012000F0EAFA13E000206B
:101190007F490860FFF710FD054606E0FFF70CFDEC
:1011A000401B022801D90320F6E67748406A00F088
:1011B00002000028F2D1207800F00400042873D146
:1011C00000277148C06900F0805070B900BF6E48B8
:1011D000C06940F080506C49C8610846C06900F0A1
:1011E0008050009000BF00BF01276A48006800F4EB
:1011F0008070B0B96748006840F480706549086045
:10120000FFF7DAFC054606E0FFF7D6FC401B642832
:1012100001D90320C0E65F48006800F48070002810
:10122000F2D000BFE068012806D15748006A40F0BC
:1012300001005549086227E0E06858B95248006A41
:1012400020F00100504908620846006A20F00400BE
:10125000086219E0E06805280BD14B48006A40F0AD
:101260000400494908620846006A40F0010008622B
:101270000AE04548006A20F0010043490862084638
:10128000006A20F00400086200BFE068A0B1FFF728
:1012900093FC054609E0FFF78FFC401B41F28831C3
:1012A000884202D9032077E622E03748006A00F03E
:1012B00002000028EFD012E0FFF77EFC054608E0B0
:1012C000FFF77AFC401B41F28831884201D90320A4
:1012D00062E62D48006A00F002000028F0D1012FDC
:1012E00005D12948C06920F080502749C86100BF56
:1012F000E069C8B32448406800F00C00082860D0BA
:10130000E069022848D1002020490866FFF754FC14
:10131000054606E0FFF750FC401B022801D90320D8
:101320003AE61948006800F000700028F2D1206AFF
:10133000B0F5803F07D11448406820F40030A16820
:10134000084311494860D4E9080108430E49496837
:1013500021F4741108430C49486001200B490866C8
:10136000FFF72AFC054607E03DE0FFF725FC401BA0
:10137000022801D903200FE60348006800F000703E
:101380000028F2D02FE0000000100240000042428E
:101390008004424200700040002014490866FFF7B4
:1013A0000BFC054606E0FFF707FC401B022801D9AD
:1013B0000320F1E50E48006800F000700028F2D12B
:1013C00011E0E069012800D1E6E50948466806F425
:1013D0008031206A814204D106F47011606A814232
:1013E00001D00120D8E50020D6E5000000004242EF
:1013F0000010024070B504462546681EB0F1807F9B
:1014000001D301200FE0681E4FF0E02148610F2159
:101410004FF0FF3000F00AFB00204FF0E021886120
:1014200007200861002070BD10B504460CB90120EA
:1014300010BDA06900B100E000BF94F8410028B9D8
:10144000002084F84000204600F02AF8242084F888
:1014500041002068C06820F400502168C860204620
:1014600000F006FA2068006920F4904021680861C5
:101470002068406920F02A00216848612068C0681F
:1014800040F400502168C86000206064202084F887
:10149000410084F842000020606300BFC8E70000FC
:1014A00010B586B004460020029003900490059089
:1014B0001949206888422DD100BF1848C06940F4FE
:1014C00000301649C8610846C06900F40030019038
:1014D00000BF00BF00BF0846806940F0040088617B
:1014E0000846806900F00400019000BF00BF04209E
:1014F0000290022003900320059002A90848FFF7FC
:10150000C5F90820029000200390049002A9044825
:10151000FFF7BCF906B010BD0044004000100240C7
:10152000000801402DE9F84F04460E46174699463B
:101530004FF0000A94F84100202850D106B117B9A5
:101540000120BDE8F88F00206064212084F841006C
:10155000FFF732FB8246A784E784A068B0F5805F7E
:1015600004D1206910B90025B04602E035464FF09D
:1015700000081EE05346002280212046CDF800904E
:1015800000F0F4F920B1202084F841000320D8E7CE
:1015900045B9B8F80000C0F308002168486008F1B8
:1015A000020803E02878216848606D1CE08C401E2A
:1015B000E084E08C0028DDD1534600224021204603
:1015C000CDF8009000F0D2F920B1202084F841003D
:1015D0000320B6E7202084F841000020B1E7022074
:1015E000AFE700BFFEE710B500F00CF84FF4FA705B
:1015F00001F0A6FB00F006F810BD10B500F002F8EF
:1016000010BD000010B5002204210648FFF7CEFAF5
:10161000642001F095FB012204210248FFF7C6FA7D
:1016200010BD0000000C014000B585B00020019005
:1016300002900390049000BF3648806940F010008B
:10164000344988610846806900F01000009000BFAE
:1016500000BF00BF0846806940F02000886108464E
:10166000806900F02000009000BF00BF00BF084666
:10167000806940F0040088610846806900F0040039
:10168000009000BF00BF00BF0846806940F008001E
:1016900088610846806900F00800009000BF00BF24
:1016A000012204211C48FFF781FA00224FF4404137
:1016B0001948FFF77BFA00224FF4C0511748FFF793
:1016C00075FA04200190112002900020039002205E
:1016D000049001A91048FFF7D9F84FF44040019059
:1016E00001200290002003900220049001A90A48E2
:1016F000FFF7CCF84FF4C050019001200290002079
:1017000003900220049001A90448FFF7BFF805B038
:1017100000BD000000100240000C01400008014024
:1017200010B50B480B4908604FF4E13048600021C8
:1017300008488160C16001610C2141610021816123
:10174000C161FFF771FE08B1FFF79CF810BD000002
:10175000004400408000002000BFFEE700BFFEE71D
:1017600008B508490968C9084FF47A72B1FBF2F16B
:101770004143009100BF00BF00994A1E009200291A
:10178000F9D108BD0C00002010B5FFF71BFA01F0DD
:10179000D7FC012801D001F0DFFB10BD00B58FB0F0
:1017A000282105A8FEF721FD14216846FEF71DFD3E
:1017B0000120059000040690002007900120099068
:1017C00002200C90C1030D914FF4E0110E9105A879
:1017D000FFF7DEFB08B1FFF755F80F20009002205D
:1017E0000190002002904FF480600390002004904C
:1017F00002216846FFF7A8FA08B1FFF743F80FB0D7
:1018000000BD704700BF00BF02680C3252E8002FD5
:1018100022F4907102680C3242E80013002BF3D1DD
:1018200000BF00BF00BF0268143252E8002F22F050
:1018300001010268143242E80013002BF3D100BF0B
:10184000016B01290ED100BF00BF02680C3252E8C3
:10185000002F22F0100102680C3242E80013002B26
:10186000F3D100BF202180F84210002101637047AE
:1018700070B504462168096921F44051E2681143BA
:10188000226811612269A1681143626941EA020577
:101890002168C96841F20C62914329432268D160F2
:1018A0002168496921F44071A2691143226851619C
:1018B0002D4A2168914202D1FFF722FB01E0FFF798
:1018C0000FFB00EBC00101EB001162689200B1FB5D
:1018D000F2F100EBC00202EB001263689B00B2FB66
:1018E000F3F26423B2FBF3F202EBC20303EB021246
:1018F000A1EB8201322202EB01116422B1FBF2F171
:1019000001F0F00100EBC00202EB001263689B00E3
:10191000B2FBF3F26423B2FBF3F201EB021200EB31
:10192000C00101EB001163689B00B1FBF3F100EB18
:10193000C00303EB00136668B600B3FBF6F364263E
:10194000B3FBF6F303EBC30606EB0313A1EB830132
:10195000322303EB01116423B1FBF3F101F00F011A
:1019600011442268916070BD003801402DE9F843B0
:1019700004460D4617469846089E31E0701C70B329
:10198000FFF71AF9A0EB0800B04200D816B90320FF
:10199000BDE8F8832068C06800F00400F8B1802D2D
:1019A0001ED0402D1CD020680068C0F3C000B0B12C
:1019B00000BF002000902068006800902068406808
:1019C000009000BF00BF2046FFF71CFF08206064A6
:1019D00000BF002084F8400000BF0120D8E7FFE7E7
:1019E000206800682840A84201D1012000E00020C2
:1019F000B842C3D00020CBE700BFFEE70FB4054BD1
:101A000010B503A9044A029800F0F6F810BC5DF87E
:101A100014FB0000292300087C0000200248006815
:101A2000C0F30220704700000CED00E010B5002864
:101A300004DB0A07130E054A135406E00A07140EC6
:101A4000034A00F00F031B1FD45410BD00E400E054
:101A500018ED00E002E008C8121F08C1002AFAD100
:101A600070477047002001E001C1121F002AFBD11E
:101A7000704700002DE9FF5F82B00021DDE90430EE
:101A8000020DDDF840B0034318D044F61050A2F226
:101A9000FF3242431514119801281FD0A5EB0B000B
:101AA000401C5FEA000A4FF000064E4FDFF8389105
:101AB000B046504615D5CAF1000413E01198012430
:101AC0004AA3012801D16FEA0B010298119AC0E9DB
:101AD0000031C0E9024206B0BDE8F09FCBF1000042
:101AE000DFE704460021404A491842EB0450CDE9A3
:101AF000001012E0E00707D032463B464046494618
:101B0000FEF77CFC8046894632463B461046194625
:101B1000FEF774FC06460F466410002CEAD1DDE99E
:101B20000401DDE90023BAF1000F06DAFEF766FCD6
:101B300042464B46FEF762FC05E0FEF7D1FC42460A
:101B40004B46FEF7CDFC04460E460022284BFEF71E
:101B50004FFD03D84FF0FF30014607E00022254B30
:101B600020463146FEF7A3FBFEF729FD102409E0CD
:101B7000002C0ADB0A220023FEF768FB039B3032AD
:101B80001A55641E50EA0102F2D1641C039AC4F192
:101B900011031444119A012A03D0012208430DD1E4
:101BA0000AE0084304D000204FF0110B119072E7B7
:101BB000A3EB0B056D1E0DE05B4504DD4FF000024D
:101BC00005F1010504E003DA4FF00002A5F101057B
:101BD000002AECD002981199C0E90231C0E9004511
:101BE00079E70000000014400000F03F30000000E2
:101BF0000000F0430000E03F2DE9FF4F95B09B4609
:101C00008946064600250FE2252877D1002427467D
:101C1000F84A0121059400E0044316F8013F203BF7
:101C200001FA03F01042F7D130782A2811D06FF072
:101C30002F033078A0F13002092A16D8059A44F013
:101C4000020402EB820203EB42021044761C059070
:101C5000EFE759F8042B0592002A03DA504244F4C6
:101C60000054059044F00204761C30782E2816D1DA
:101C700016F8010F44F004042A280DD06FF02F024B
:101C80003078A0F13003092B09D807EB870302EB6A
:101C90004303C718761CF3E759F8047B761C3078A9
:101CA0006C280FD006DC4C2817D068280DD06A2885
:101CB00014D104E0742810D07A280FD10DE044F438
:101CC00000140AE044F4801401E044F440147278F3
:101CD000824202D104F58014761C761C3078662886
:101CE0000BD013DC582877D009DC002875D04528A4
:101CF000F6D04628F4D047281AD19DE118E0632891
:101D000035D0642879D0652812D195E1702873D038
:101D100008DC6728F1D069286FD06E280DD06F28B5
:101D200006D1B5E073282CD0752875D0782874D0EA
:101D30005A46179990476D1C75E1C4F3025002286A
:101D400009D003280DD0D9F8001004280DD00D605B
:101D500009F1040967E1D9F80010EA17C1E9005256
:101D6000F6E7D9F800100D80F2E70D70F0E719F8EA
:101D7000041B8DF8001000208DF80100EA460120B8
:101D800003E059F804AB4FF0FF3061074FF000015A
:101D900002D40DE008F101018846B9420FDA80450E
:101DA000F8DB1AF808100029F4D108E008F1010165
:101DB00088468142FADB1AF808100029F6D1059806
:101DC0005B46A0EB080721463846179A00F094FAC4
:101DD000284400EB080507E04DE029E10DE01AF882
:101DE000010B5A4617999047B8F10108F7D25B46A4
:101DF00021463846179A13E142E00A220092C4F3C2
:101E000002524FF0000A022A08D059F804CB032AE4
:101E10004FEAEC710AD00DE029E02AE009F1070150
:101E200021F00702F2E802C1914609E00FFA8CFCAA
:101E30004FEAEC71042A03D14FFA8CFC4FEAEC71A3
:101E4000002907DA0A460021DCF1000C61EB0201EF
:101E50002D2202E0220504D52B228DF80420012238
:101E600003E0E20701D02022F7E7904659E00A217B
:101E700002E010220DE010214FF0000A00910BE06B
:101E800010224FF0000A44F004040827009203E0F7
:101E900008224FF0000A0092C4F30252022A05D031
:101EA00059F804CB0021032A08D009E009F1070101
:101EB00021F00702F2E802C1914605E01FFA8CFC0E
:101EC000042A01D10CF0FF0C4FF00008220728D59E
:101ED000702806D0009B83F0100353EA0A0305D054
:101EE0000EE040228DF80420012208E05CEA0102A5
:101EF00006D030228DF804208DF80500022290468D
:101F0000009B83F0080353EA0A030AD15CEA01024A
:101F100001D1620705D530228DF804204FF0010869
:101F20007F1E582804D034A003900EA802900DE024
:101F300036A0F9E753466046009AFEF787F98446D3
:101F40000398825C0298401E029002705CEA0100D5
:101F5000F0D1029806A9081A00F1200A600702D5FC
:101F600024F4803400E00127574502DDA7EB0A0086
:101F700000E0002000EB0A01009005984144401A5F
:101F80000590E00306D45B462146179A059800F0B9
:101F9000B3F90544002706E001A85A46C05D179929
:101FA00090476D1C7F1C4745F6DBE0030CD55B4674
:101FB0002146179A059800F09FF9054404E0302067
:101FC0005A46179990476D1C0099481E00900029A9
:101FD000F5DC08E0029802995A460078491C029103
:101FE000179990476D1CBAF10001AAF1010AF1DCC2
:101FF00065E10000092801003031323334353637CD
:102000003839616263646566000000003031323344
:1020100034353637383941424344454600000000E4
:1020200000F058F90544761C307800287FF4ECADB8
:1020300019B02846BDE8F08F620700D4062709F1E1
:10204000070222F0070CFCE80223E14603F00048F7
:102050005FEA080C02D00FF2702C0DE05FEA045C1E
:1020600002D50FF2682C07E05FEAC47C02D00FF2C1
:10207000602C01E0AFF2700C4FF0FF3823F000430A
:10208000CDF850C065280CD006DC452809D046287C
:102090001DD047283DD13DE0662818D067287ED165
:1020A00038E00021112F01DB112000E0781CCDE980
:1020B000000106A90EA8FFF7DDFCDDE90F010E9A6D
:1020C00003910021009207F1010A04914DE04FF0C5
:1020D00000400097CDE9011006A90EA8FFF7CAFC41
:1020E000DDE90F0203920E9B11990022DDF80CA08E
:1020F0000093049211B9791C00EB010AB7EB0A00B6
:1021000004D4C0F1FF3007F1010A0490AAEB0700E4
:10211000019044E0012F00DA01270021112F01DD99
:10212000112000E03846CDE9000106A90EA8FFF70E
:10213000A1FCDDE90F010E9A0391002104910092A8
:10214000BA4621070CD40399514500DA8A46BAF100
:10215000010F05DD009AAAF10101515C302908D078
:10216000B84202DA10F1040F06DA0121CDE90110BC
:1021700015E0AAF10101E9E7002805DC0499014412
:102180000491AAEB000102E0411C514500DD8A46A2
:102190000499401A401C01904FF000400290200723
:1021A00004D40198504501DBCDF8048000208DF85F
:1021B0004F0002980DF14F07B0F1004F25D02B20B2
:1021C0000E9002984FF0020800280CDA404202906C
:1021D0002D200E9007E00A210298FEF721F83031F9
:1021E000029007F8011DB8F10001A8F10108F2DC26
:1021F00002980028EFD1791E0E980870307800F010
:10220000200040F0450007F8020D12A8C01B00F1A5
:1022100007081498007800B1012000EB0A0101982A
:1022200001EBE07105984144401A401E0590E0031F
:1022300006D45B462146179A059800F05DF80544E0
:102240001498007818B15A46179990476D1CE0030E
:1022500024D55B462146179A059800F04DF80544B1
:102260001CE00498002807DBDDE90301884203DD58
:102270000098405C179901E0179930205A46904722
:10228000049805F10105401C04900198401E01903E
:1022900004D12E205A46179990476D1CBAF10001BF
:1022A000AAF1010ADDDC05E017F8010B5A4617997F
:1022B00090476D1CB8F10001A8F10108F4DC5B4601
:1022C0002146179A0598ABE62D0000002B00000070
:1022D000200000002DE9F041044600251E46174667
:1022E000880404D405E039462020B0476D1C641EE4
:1022F000F9D52846BDE8F0812DE9F04104460025D6
:102300001E469046C80301D5302700E020278804E8
:1023100004D505E041463846B0476D1C641EF9D52A
:102320002846BDE8F081000013B50C464FF47A73DF
:10233000012269460248FFF7F5F800981CBD00002D
:1023400080000020FEF74AFCFFF728FAFFF76CF93F
:10235000FFF7E6F9FEF7F4F900BFFEE75C2123A0E2
:10236000FDF74EFF28B15C2120A0FDF749FF401C7E
:1023700000E01EA004465022214622A0FFF73EFBAB
:1023800000F0EEFE30E042F210720121002000F079
:10239000F5FB002814D05C2114A0FDF731FF28B113
:1023A0005C2112A0FDF72CFF401C00E00FA00446AA
:1023B000562221461FA0FFF721FBFFF714F913E077
:1023C0005C210AA0FDF71CFF28B15C2107A0FDF7E6
:1023D00017FF401C00E005A004465B2221461BA01D
:1023E000FFF70CFBFFF709F9CDE700002E2E5C414B
:1023F00070705C7461736B5C4170705F5461736B7F
:102400002E6300005B253135733A2534645D202D41
:102410002D20E794B5E6BA90E7AEA1E79086E4BB3D
:10242000BBE58AA1E5BC80E5A78BE689A7E8A18C7E
:102430000D0A00005B253135733A2534645D202D8B
:102440002D20E585B3E69CBA0D0A00005B253135E9
:10245000733A2534645D202D2D20E794B5E6BA90BB
:10246000E7AEA1E79086E4BBBBE58AA1E689A7E8D1
:10247000A18CEFBC9A3130E7A792E689A7E8A18C3E
:10248000E4B880E6ACA10D0A000000002DE9F0419F
:1024900005460E462648076826480068001D00F0DD
:1024A000B1FB50B92348006890F82C1001208840F7
:1024B00021490968814320480160681CD8B9D6B118
:1024C0001E4948681B49096888601A49826809687A
:1024D000CA6018490968091D826851601549096870
:1024E000091D8160154A134909684A611146096846
:1024F000491C11601AE07C190E4800684460BC4217
:1025000007D20C480168091D0D48006800F09EFBC9
:102510000CE008480168091D0A48006800F096FBB5
:1025200009480068844201D207480460BDE8F08190
:10253000500000203C000020540000209833002070
:1025400044000020400000206C00002010B504462C
:1025500000F0A2FB31480068401C30490860304858
:10256000006840B92E4804600846006801280DD173
:1025700000F020F90AE02B48006838B928480068C4
:10258000C06AE16A884201D825480460264800688C
:10259000401C2549086008460068606494F82C10C7
:1025A0000120884021490968084320490860E16A00
:1025B00001EB81011E4A02EB81014868A06082683C
:1025C000E260211D826851608160E16A01EB810156
:1025D000174A02EB81026261E16A01EB8101144A50
:1025E00052F82110491CE26A02EB8202104B43F8B8
:1025F000221000F063FB0B48006868B108480068CF
:10260000C06AE16A884207D24FF0805009490860E9
:10261000BFF34F8FBFF36F8F10BD00004C00002041
:102620003C000020580000206800002054000020DA
:10263000C830002004ED00E010B516E000F02CFBDF
:102640000C48C068C468201D00F0DCFA0A48006825
:10265000401E0949086009480068401E0749086093
:1026600000F02CFB204600F00BF80448006800281E
:10267000E4D110BD843300204C000020480000202D
:1026800010B50446206B00F029FB204600F026FB25
:1026900010BD000030B54FF44053154800F007045A
:1026A0002CB1C01D20F00700114C041B1B1B02465F
:1026B000104C226000240F4D6C60D018083820F0B8
:1026C00007000D4C206000240B4D2D686C600A4DF6
:1026D0002D682C601146441A4C60074C24680C602D
:1026E000064D4C682C60064D4C682C6030BD0000D7
:1026F000C80000202000002028000020300000201A
:102700002C00002000BFFFF797FF06480068012853
:10271000F9D94FF0805004490860BFF34F8FBFF3E1
:102720006F8FF0E7C830002004ED00E02DE9F05F86
:1027300081460E4690469A460A9F0C9C4FEA8801B5
:10274000A522206BFDF74AFDA8F10100216B01EBEA
:10275000800B2BF0070B7EB1002507E0715D04F1C3
:1027600034004155705D00B902E06D1C102DF5D3A9
:1027700000BF002143200155202F00D31F27E7620F
:10278000E764201D00F05FFA04F1180000F05BFA26
:102790002461C7F12000A061646252464946584650
:1027A00000F006F920600B9808B10B980460BDE8B2
:1027B000F09F000010B5002407E004EB84010F4AED
:1027C00002EB810000F032FA641C202CF5D30C4897
:1027D00000F02CFA0B4800F029FA0B4800F026FA1A
:1027E0000A4800F023FA0A4800F020FA0448094990
:1027F000086004480849086010BD0000C830002087
:10280000483300205C3300207033002084330020E4
:1028100098330020400000204400002010B50146FD
:10282000164800E0006803688B42FBD30246436809
:1028300013448B4204D143684C68234443600146EF
:102840000A464B6813440468A34211D10C4C036838
:102850002468A34208D04B680468646823444B6032
:1028600003681B680B6005E0054B1B680B6001E00B
:1028700003680B60884200D0016010BD200000207A
:102880002800002009480068006808B9012000E01D
:10289000002020B14FF0FF300549086005E00348F3
:1028A0000068C06800680249086070474000002066
:1028B0006C00002000BF502080F31188BFF34F8FC1
:1028C000BFF36F8F00BF00BFFEE700002DE9F047A8
:1028D00005464FF0000900F0EDFA3048006808B9ED
:1028E000FFF7D8FE75B105F00700C0F11008C8F178
:1028F000FF30A84201D2012000E0002008B9454481
:1029000000E00025012000EBE570002841D0002DFB
:102910003FD02348006885423BD8224E30460468A9
:1029200001E0264624686068A84202D22068002898
:10293000F7D11A48006884422BD0306800F10809AA
:10294000206830606068401B102807D967196068EC
:10295000401B786065603846FFF760FF104960688B
:102960000968081A0E490860084600680E49096897
:10297000884203D20A4800680B490860606840F04A
:10298000004060600020206008480068401C074943
:10299000086000F0B3FC4846BDE8F087280000203E
:1029A0002C000020200000203000002034000020F7
:1029B000001F4FF080730360001F21F001030360CC
:1029C000001F034B0360143802602038704700007A
:1029D000B52800087CB505465C211DA0FDF710FC5C
:1029E00028B15C211AA0FDF70BFC401C00E018A0E8
:1029F0000446362221461CA0FFF700F8284809218A
:102A000000238022CDE9001026A1294800F0BEFA5B
:102A10002848012100238022CDE9001026A1284862
:102A200000F0B4FA002000F0A5F95C2108A0FDF741
:102A3000E7FB28B15C2106A0FDF7E2FB401C00E0AB
:102A400003A004464A2221461EA0FEF7D7FF7CBD04
:102A50002E2E5C4170705C7461736B5C4170705FB2
:102A60005461736B2E6300005B253135733A253456
:102A7000645D202D2D20E590AFE58AA8E4BBBBE581
:102A80008AA1E5BC80E5A78BE689A7E8A18CEFBC0D
:102A90009AE5BC80E5A78BE8B083E5BAA60D0A00ED
:102AA00018000020706F7765725F7461736B0000AF
:102AB0005D2300081400002074657374000000009A
:102AC000F12A00085B253135733A2534645D202DE9
:102AD0002D20E4B88DE5868DE689A7E8A18CE590E8
:102AE000AFE58AA8E4BBBBE58AA10D0A000000009F
:102AF00008B55C210FA0FDF783FB28B15C210DA078
:102B0000FDF77EFB401C00E00AA00446652221463A
:102B10000EA0FEF773FF0CE044F6206000F010F901
:102B2000002002230246014600901348006800F08E
:102B300061FAF1E72E2E5C4170705C7461736B5C1E
:102B40004170705F5461736B2E6300005B253135FB
:102B5000733A2534645D202D2D20E6B58BE8AF95C2
:102B6000E4BBBBE58AA1E5BC80E5A78BE689A7E8C5
:102B7000A18C0D0A00000000180000202DE9F04192
:102B800004460F46164600F087F81C48006854308B
:102B900050F8240080B901211848006868300155B8
:102BA00056B13046FFF772FC4FF080501449086070
:102BB000BFF34F8FBFF36F8F00F080F800F06CF819
:102BC0000E480068543050F824506DB137B10021E0
:102BD0000A480068543040F8241005E0681E074990
:102BE0000968543141F82400002104480068683025
:102BF000015500F063F82846BDE8F0813C00002054
:102C000004ED00E001460A69D1E901309860D1E99C
:102C1000010358605068884201D1886850600020E4
:102C200008611068401E10601068704700F10801CC
:102C300041604FF0FF31816000F10801C160016126
:102C400000210160704700210161704710B5024604
:102C50000B685C1C0CB9106907E002F1080000E089
:102C60004068446824689C42FAD944684C604C68C7
:102C7000A160886041600A611468641C146010BD22
:102C800042684A6093688B609368596091600861FC
:102C900003685B1C0360704700BF502080F31188FD
:102CA000BFF34F8FBFF36F8F00BF03480068401C16
:102CB00001490860704700001C00002006480068B9
:102CC000401E054908600846006820B9002080F3CE
:102CD000118800BF00BF70471C00002070B5064679
:102CE0003546E6B1083D2C466068C00FB8B1206893
:102CF000A8B9606820F00040606000F0DBF8084987
:102D0000606809680844064908602046FFF786FDA8
:102D100004480068401C0349086000F0EFFA70BDE9
:102D20002C0000203800002000204FF0E021086136
:102D30008861024848610720086170473F19010017
:102D400070B50446002544B100F0B4F800212046D7
:102D5000FFF79CFB00F0D2FA05463DB94FF08050DA
:102D600003490860BFF34F8FBFF36F8F70BD000042
:102D700004ED00E070B50546FFF78EFF15B9294850
:102D8000006800E028460446201DFFF73BFF78B9A5
:102D9000E06A00EB8000244951F8200040B994F823
:102DA0002C10012088402149096881431F48016097
:102DB000A06A18B104F11800FFF724FF1C4800684E
:102DC000401C1B49086017480068844209D1211D36
:102DD0001848FFF755FF18480068401C164908605E
:102DE00006E016480068401E14490860FFF74AFDD7
:102DF000FFF764FF0B480068844202D02046FFF7CB
:102E00003FFC0F48006858B106480068844207D16B
:102E10004FF080500B490860BFF34F8FBFF36F8FA7
:102E200070BD00003C000020C8300020540000208D
:102E30006800002084330020480000204C0000205F
:102E40005800002004ED00E01CB5124800210B469C
:102E50008022CDE9001010A1114800F097F8044637
:102E6000012C14D100BF502080F31188BFF34F8F85
:102E7000BFF36F8F00BF4FF0FF300A490860012099
:102E80000949086000200949086000F04BF808482B
:102E900000681CBD7000002049444C450000000043
:102EA000052700086C00002058000020500000207A
:102EB0007400002002480068401C01490860704707
:102EC000780000201248006818B1012011490860FC
:102ED0001DE000200F4908600F480068B0FA80F03C
:102EE000C0F11F0101EB81020C4B03EB8200426831
:102EF0005268426000F108024368934202D142687E
:102F0000526842604268D268054B1A6000BF704741
:102F1000780000206000002054000020C83000200D
:102F20003C00002010B50A48006840F470000849D1
:102F300008600846006840F070400860FFF7F4FE43
:102F4000002004490860FDF7EDF8002010BD0000E6
:102F500020ED00E01C00002010B500BF502080F3E1
:102F60001188BFF34F8FBFF36F8F00BF00F0FEF8E3
:102F700018B14FF080500449086000BF002080F372
:102F8000118800BF10BD000004ED00E02DE9FF4FE7
:102F900085B0804689461746DDE912ABB800FFF7D9
:102FA00095FC064676B17020FFF790FC04462CB1E4
:102FB00070212046FDF719F9266304E03046FFF73B
:102FC0008DFE00E000247CB10020CDE900ABCDE90E
:102FD00002403A4649464046089BFFF7A7FB204679
:102FE000FFF7B4FA012501E04FF0FF35284609B09C
:102FF000BDE8F08F2DE9F05F81460D4616461F466D
:10300000DDF828A04FF0010B4C46FFF745FEBAF162
:10301000000F05D004F1540050F82500CAF8000054
:1030200004F1680010F8058002214155052F29D2CE
:10303000DFE807F027030D171C0004F1540050F8D7
:103040002500304304F1540141F825001BE004F150
:10305000540050F82500401C04F1540141F82500AB
:1030600011E004F1540040F825600CE0B8F1020FC3
:1030700004D004F1540040F8256001E04FF0000B4B
:1030800001E000E000BF00BFB8F1010F4AD1606964
:10309000D4E902128A60D4E902214A60211D426803
:1030A0008A4201D1E1684160002262610168491EE3
:1030B000016094F82C10012088401D4909680843DC
:1030C0001B490860E16A01EB81011A4A02EB8101A8
:1030D0004868A0608268E260211D8268516081605A
:1030E000E16A01EB8101134A02EB81026261E16A4C
:1030F00001EB81010F4A52F82110491CE26A02EBF0
:1031000082020C4B43F822100B49E06A0968C96A35
:10311000884207D94FF0805008490860BFF34F8FAD
:10312000BFF36F8FFFF7CAFD5846BDE8F09F000060
:1031300054000020C83000203C00002004ED00E0D6
:103140000549096809B9012005E00449096809B978
:10315000022000E000207047580000207800002086
:103160000149086870470000500000202DE9F04137
:1031700000275748006800287ED156480068451C43
:10318000544805608DB95448D0F800805348006811
:10319000514908605148C0F8008051480068401CFF
:1031A0004F490860FFF76EFB00BF4E48006885423C
:1031B00076D300BF48480068006808B9012000E0E5
:1031C000002020B14FF0FF304649086067E04248D8
:1031D0000068C068C4686668B54202D241480660AB
:1031E0005DE06069D4E902128A60D4E902214A6094
:1031F000211D42688A4201D1E1684160002262617A
:103200000168491E0160A06A98B1A06AD4E907125A
:103210008A60D4E907214A6004F1180142688A42B1
:1032200001D1216A41600022A2620168491E016049
:1032300000BF94F82C10012088402B4909680843EE
:1032400029490860E16A01EB8101284A02EB81010A
:103250004868A0608268E260211D826851608160D8
:10326000E16A01EB8101214A02EB81026261E16ABC
:1032700001EB81011D4A00E022E052F82110491CB7
:10328000E26A02EB8202194B43F822101849E06A05
:103290000968C96A88428DD901278BE700E000BF21
:1032A00013480068C06A00EB8000104951F8200004
:1032B000012800D901270F48006800B1012704E068
:1032C0000D480068401C0C4908603846BDE8F08194
:1032D0007800002050000020400000204400002022
:1032E000640000206C00002054000020C830002042
:1032F0003C000020600000205C00002070B500242D
:103300000026FFF7C9FC4B480068401E4949086089
:103310000846006800287DD147480068002879D019
:103320005BE04648C068C468A06AD4E907128A60B6
:10333000D4E907214A6004F1180142688A4201D1A8
:10334000216A41600022A2620168491E0160606931
:10335000D4E902128A60D4E902214A60211D426840
:103360008A4201D1E1684160002262610168491E20
:10337000016094F82C100120884031490968084305
:103380002F490860E16A01EB81012E4A02EB8101BD
:103390004868A0608268E260211D82685160816097
:1033A000E16A01EB8101274A02EB81026261E16A75
:1033B00001EB8101234A52F82110491CE26A02EB19
:1033C0008202204B43F822101F49E06A0968C96A4B
:1033D000884202D301201D4908601848006808B9D6
:1033E000012000E0002000289BD00CB1FFF74AFA32
:1033F0001748056865B100BFFFF7B8FE10B101209E
:10340000124908606D1E002DF6D100201049086099
:103410000E4800E009E0006838B1012630070D4988
:103420000860BFF34F8FBFF36F8FFFF747FC304645
:1034300070BD0000780000204C0000207033002098
:1034400054000020C83000203C0000206000002014
:103450005C00002004ED00E00203040506070809F3
:103460000A0B0C0D0E0F10100102000000000000EE
:103470000000010203040607080900000000010221
:1034800003040000A43400080000002080000000B5
:10349000541A00082435000880000020303B00004A
:1034A000641A000800000000100000000100000085
:1034B00000127A0000000000000000000000000080
:1034C000AAAAAAAA00000000000000000000000054
:1034D00000000000000000000000000000000000EC
:1034E00000000000000000000000000000000000DC
:1034F00000000000000000000000000000000000CC
:1035000000000000000000000000000000000000BB
:1035100000000000000000001F000000000000008C
:0435200000000000A7
:04000005080000ED02
:00000001FF
